{
  "contractName": "DexSwap",
  "abi": [
    {
      "anonymous": false,
      "inputs": [
        {
          "indexed": true,
          "internalType": "address",
          "name": "owner",
          "type": "address"
        },
        {
          "indexed": true,
          "internalType": "address",
          "name": "spender",
          "type": "address"
        },
        {
          "indexed": false,
          "internalType": "uint256",
          "name": "value",
          "type": "uint256"
        }
      ],
      "name": "Approval",
      "type": "event"
    },
    {
      "anonymous": false,
      "inputs": [
        {
          "indexed": true,
          "internalType": "address",
          "name": "to",
          "type": "address"
        },
        {
          "indexed": false,
          "internalType": "uint256",
          "name": "value",
          "type": "uint256"
        }
      ],
      "name": "Lock",
      "type": "event"
    },
    {
      "anonymous": false,
      "inputs": [
        {
          "indexed": true,
          "internalType": "address",
          "name": "previousOwner",
          "type": "address"
        },
        {
          "indexed": true,
          "internalType": "address",
          "name": "newOwner",
          "type": "address"
        }
      ],
      "name": "OwnershipTransferred",
      "type": "event"
    },
    {
      "anonymous": false,
      "inputs": [
        {
          "indexed": true,
          "internalType": "bytes32",
          "name": "role",
          "type": "bytes32"
        },
        {
          "indexed": true,
          "internalType": "bytes32",
          "name": "previousAdminRole",
          "type": "bytes32"
        },
        {
          "indexed": true,
          "internalType": "bytes32",
          "name": "newAdminRole",
          "type": "bytes32"
        }
      ],
      "name": "RoleAdminChanged",
      "type": "event"
    },
    {
      "anonymous": false,
      "inputs": [
        {
          "indexed": true,
          "internalType": "bytes32",
          "name": "role",
          "type": "bytes32"
        },
        {
          "indexed": true,
          "internalType": "address",
          "name": "account",
          "type": "address"
        },
        {
          "indexed": true,
          "internalType": "address",
          "name": "sender",
          "type": "address"
        }
      ],
      "name": "RoleGranted",
      "type": "event"
    },
    {
      "anonymous": false,
      "inputs": [
        {
          "indexed": true,
          "internalType": "bytes32",
          "name": "role",
          "type": "bytes32"
        },
        {
          "indexed": true,
          "internalType": "address",
          "name": "account",
          "type": "address"
        },
        {
          "indexed": true,
          "internalType": "address",
          "name": "sender",
          "type": "address"
        }
      ],
      "name": "RoleRevoked",
      "type": "event"
    },
    {
      "anonymous": false,
      "inputs": [
        {
          "indexed": true,
          "internalType": "address",
          "name": "from",
          "type": "address"
        },
        {
          "indexed": true,
          "internalType": "address",
          "name": "to",
          "type": "address"
        },
        {
          "indexed": false,
          "internalType": "uint256",
          "name": "value",
          "type": "uint256"
        }
      ],
      "name": "Transfer",
      "type": "event"
    },
    {
      "anonymous": false,
      "inputs": [
        {
          "indexed": true,
          "internalType": "address",
          "name": "account",
          "type": "address"
        }
      ],
      "name": "WhitelistAdded",
      "type": "event"
    },
    {
      "anonymous": false,
      "inputs": [
        {
          "indexed": true,
          "internalType": "address",
          "name": "account",
          "type": "address"
        }
      ],
      "name": "WhitelistRemoved",
      "type": "event"
    },
    {
      "anonymous": false,
      "inputs": [
        {
          "indexed": true,
          "internalType": "address",
          "name": "account",
          "type": "address"
        }
      ],
      "name": "WhitelistRevoked",
      "type": "event"
    },
    {
      "inputs": [],
      "name": "DEFAULT_ADMIN_ROLE",
      "outputs": [
        {
          "internalType": "bytes32",
          "name": "",
          "type": "bytes32"
        }
      ],
      "stateMutability": "view",
      "type": "function"
    },
    {
      "inputs": [],
      "name": "WHITELIST_ROLE",
      "outputs": [
        {
          "internalType": "bytes32",
          "name": "",
          "type": "bytes32"
        }
      ],
      "stateMutability": "view",
      "type": "function"
    },
    {
      "inputs": [],
      "name": "__WhitelistRole_init",
      "outputs": [],
      "stateMutability": "nonpayable",
      "type": "function"
    },
    {
      "inputs": [
        {
          "internalType": "address",
          "name": "account",
          "type": "address"
        }
      ],
      "name": "addWhitelist",
      "outputs": [],
      "stateMutability": "nonpayable",
      "type": "function"
    },
    {
      "inputs": [],
      "name": "allowTransferOn",
      "outputs": [
        {
          "internalType": "uint256",
          "name": "",
          "type": "uint256"
        }
      ],
      "stateMutability": "view",
      "type": "function"
    },
    {
      "inputs": [
        {
          "internalType": "address",
          "name": "owner",
          "type": "address"
        },
        {
          "internalType": "address",
          "name": "spender",
          "type": "address"
        }
      ],
      "name": "allowance",
      "outputs": [
        {
          "internalType": "uint256",
          "name": "",
          "type": "uint256"
        }
      ],
      "stateMutability": "view",
      "type": "function"
    },
    {
      "inputs": [
        {
          "internalType": "address",
          "name": "spender",
          "type": "address"
        },
        {
          "internalType": "uint256",
          "name": "amount",
          "type": "uint256"
        }
      ],
      "name": "approve",
      "outputs": [
        {
          "internalType": "bool",
          "name": "",
          "type": "bool"
        }
      ],
      "stateMutability": "nonpayable",
      "type": "function"
    },
    {
      "inputs": [
        {
          "internalType": "address",
          "name": "account",
          "type": "address"
        }
      ],
      "name": "balanceOf",
      "outputs": [
        {
          "internalType": "uint256",
          "name": "",
          "type": "uint256"
        }
      ],
      "stateMutability": "view",
      "type": "function"
    },
    {
      "inputs": [
        {
          "internalType": "uint256",
          "name": "amount",
          "type": "uint256"
        }
      ],
      "name": "burn",
      "outputs": [],
      "stateMutability": "nonpayable",
      "type": "function"
    },
    {
      "inputs": [
        {
          "internalType": "address",
          "name": "account",
          "type": "address"
        },
        {
          "internalType": "uint256",
          "name": "amount",
          "type": "uint256"
        }
      ],
      "name": "burnFrom",
      "outputs": [],
      "stateMutability": "nonpayable",
      "type": "function"
    },
    {
      "inputs": [],
      "name": "cap",
      "outputs": [
        {
          "internalType": "uint256",
          "name": "",
          "type": "uint256"
        }
      ],
      "stateMutability": "view",
      "type": "function"
    },
    {
      "inputs": [],
      "name": "decimals",
      "outputs": [
        {
          "internalType": "uint8",
          "name": "",
          "type": "uint8"
        }
      ],
      "stateMutability": "view",
      "type": "function"
    },
    {
      "inputs": [
        {
          "internalType": "address",
          "name": "spender",
          "type": "address"
        },
        {
          "internalType": "uint256",
          "name": "subtractedValue",
          "type": "uint256"
        }
      ],
      "name": "decreaseAllowance",
      "outputs": [
        {
          "internalType": "bool",
          "name": "",
          "type": "bool"
        }
      ],
      "stateMutability": "nonpayable",
      "type": "function"
    },
    {
      "inputs": [
        {
          "internalType": "bytes32",
          "name": "role",
          "type": "bytes32"
        }
      ],
      "name": "getRoleAdmin",
      "outputs": [
        {
          "internalType": "bytes32",
          "name": "",
          "type": "bytes32"
        }
      ],
      "stateMutability": "view",
      "type": "function"
    },
    {
      "inputs": [
        {
          "internalType": "bytes32",
          "name": "role",
          "type": "bytes32"
        },
        {
          "internalType": "address",
          "name": "account",
          "type": "address"
        }
      ],
      "name": "grantRole",
      "outputs": [],
      "stateMutability": "nonpayable",
      "type": "function"
    },
    {
      "inputs": [
        {
          "internalType": "bytes32",
          "name": "role",
          "type": "bytes32"
        },
        {
          "internalType": "address",
          "name": "account",
          "type": "address"
        }
      ],
      "name": "hasRole",
      "outputs": [
        {
          "internalType": "bool",
          "name": "",
          "type": "bool"
        }
      ],
      "stateMutability": "view",
      "type": "function"
    },
    {
      "inputs": [
        {
          "internalType": "address",
          "name": "spender",
          "type": "address"
        },
        {
          "internalType": "uint256",
          "name": "addedValue",
          "type": "uint256"
        }
      ],
      "name": "increaseAllowance",
      "outputs": [
        {
          "internalType": "bool",
          "name": "",
          "type": "bool"
        }
      ],
      "stateMutability": "nonpayable",
      "type": "function"
    },
    {
      "inputs": [
        {
          "internalType": "address",
          "name": "account",
          "type": "address"
        }
      ],
      "name": "isWhitelist",
      "outputs": [
        {
          "internalType": "bool",
          "name": "",
          "type": "bool"
        }
      ],
      "stateMutability": "view",
      "type": "function"
    },
    {
      "inputs": [],
      "name": "lockFromBlock",
      "outputs": [
        {
          "internalType": "uint256",
          "name": "",
          "type": "uint256"
        }
      ],
      "stateMutability": "view",
      "type": "function"
    },
    {
      "inputs": [],
      "name": "lockToBlock",
      "outputs": [
        {
          "internalType": "uint256",
          "name": "",
          "type": "uint256"
        }
      ],
      "stateMutability": "view",
      "type": "function"
    },
    {
      "inputs": [],
      "name": "name",
      "outputs": [
        {
          "internalType": "string",
          "name": "",
          "type": "string"
        }
      ],
      "stateMutability": "view",
      "type": "function"
    },
    {
      "inputs": [],
      "name": "owner",
      "outputs": [
        {
          "internalType": "address",
          "name": "",
          "type": "address"
        }
      ],
      "stateMutability": "view",
      "type": "function"
    },
    {
      "inputs": [],
      "name": "renounceOwnership",
      "outputs": [],
      "stateMutability": "nonpayable",
      "type": "function"
    },
    {
      "inputs": [
        {
          "internalType": "bytes32",
          "name": "role",
          "type": "bytes32"
        },
        {
          "internalType": "address",
          "name": "account",
          "type": "address"
        }
      ],
      "name": "renounceRole",
      "outputs": [],
      "stateMutability": "nonpayable",
      "type": "function"
    },
    {
      "inputs": [],
      "name": "renounceWhitelist",
      "outputs": [],
      "stateMutability": "nonpayable",
      "type": "function"
    },
    {
      "inputs": [
        {
          "internalType": "bytes32",
          "name": "role",
          "type": "bytes32"
        },
        {
          "internalType": "address",
          "name": "account",
          "type": "address"
        }
      ],
      "name": "revokeRole",
      "outputs": [],
      "stateMutability": "nonpayable",
      "type": "function"
    },
    {
      "inputs": [
        {
          "internalType": "address",
          "name": "account_",
          "type": "address"
        }
      ],
      "name": "revokeWhitelist",
      "outputs": [],
      "stateMutability": "nonpayable",
      "type": "function"
    },
    {
      "inputs": [
        {
          "internalType": "bytes4",
          "name": "interfaceId",
          "type": "bytes4"
        }
      ],
      "name": "supportsInterface",
      "outputs": [
        {
          "internalType": "bool",
          "name": "",
          "type": "bool"
        }
      ],
      "stateMutability": "view",
      "type": "function"
    },
    {
      "inputs": [],
      "name": "symbol",
      "outputs": [
        {
          "internalType": "string",
          "name": "",
          "type": "string"
        }
      ],
      "stateMutability": "view",
      "type": "function"
    },
    {
      "inputs": [],
      "name": "totalSupply",
      "outputs": [
        {
          "internalType": "uint256",
          "name": "",
          "type": "uint256"
        }
      ],
      "stateMutability": "view",
      "type": "function"
    },
    {
      "inputs": [
        {
          "internalType": "address",
          "name": "recipient",
          "type": "address"
        },
        {
          "internalType": "uint256",
          "name": "amount",
          "type": "uint256"
        }
      ],
      "name": "transfer",
      "outputs": [
        {
          "internalType": "bool",
          "name": "",
          "type": "bool"
        }
      ],
      "stateMutability": "nonpayable",
      "type": "function"
    },
    {
      "inputs": [
        {
          "internalType": "address",
          "name": "sender",
          "type": "address"
        },
        {
          "internalType": "address",
          "name": "recipient",
          "type": "address"
        },
        {
          "internalType": "uint256",
          "name": "amount",
          "type": "uint256"
        }
      ],
      "name": "transferFrom",
      "outputs": [
        {
          "internalType": "bool",
          "name": "",
          "type": "bool"
        }
      ],
      "stateMutability": "nonpayable",
      "type": "function"
    },
    {
      "inputs": [
        {
          "internalType": "address",
          "name": "newOwner",
          "type": "address"
        }
      ],
      "name": "transferOwnership",
      "outputs": [],
      "stateMutability": "nonpayable",
      "type": "function"
    },
    {
      "inputs": [
        {
          "internalType": "uint256",
          "name": "lockFromBlock_",
          "type": "uint256"
        },
        {
          "internalType": "uint256",
          "name": "lockToBlock_",
          "type": "uint256"
        }
      ],
      "name": "__DexSwap_init",
      "outputs": [],
      "stateMutability": "nonpayable",
      "type": "function"
    },
    {
      "inputs": [],
      "name": "circulatingSupply",
      "outputs": [
        {
          "internalType": "uint256",
          "name": "",
          "type": "uint256"
        }
      ],
      "stateMutability": "view",
      "type": "function"
    },
    {
      "inputs": [],
      "name": "totalLock",
      "outputs": [
        {
          "internalType": "uint256",
          "name": "",
          "type": "uint256"
        }
      ],
      "stateMutability": "view",
      "type": "function"
    },
    {
      "inputs": [
        {
          "internalType": "address",
          "name": "_to",
          "type": "address"
        },
        {
          "internalType": "uint256",
          "name": "_amount",
          "type": "uint256"
        }
      ],
      "name": "mint",
      "outputs": [],
      "stateMutability": "nonpayable",
      "type": "function"
    },
    {
      "inputs": [
        {
          "internalType": "address",
          "name": "_holder",
          "type": "address"
        }
      ],
      "name": "totalBalanceOf",
      "outputs": [
        {
          "internalType": "uint256",
          "name": "",
          "type": "uint256"
        }
      ],
      "stateMutability": "view",
      "type": "function"
    },
    {
      "inputs": [
        {
          "internalType": "address",
          "name": "_holder",
          "type": "address"
        }
      ],
      "name": "lockOf",
      "outputs": [
        {
          "internalType": "uint256",
          "name": "",
          "type": "uint256"
        }
      ],
      "stateMutability": "view",
      "type": "function"
    },
    {
      "inputs": [
        {
          "internalType": "address",
          "name": "_holder",
          "type": "address"
        }
      ],
      "name": "lastUnlockBlock",
      "outputs": [
        {
          "internalType": "uint256",
          "name": "",
          "type": "uint256"
        }
      ],
      "stateMutability": "view",
      "type": "function"
    },
    {
      "inputs": [
        {
          "internalType": "address",
          "name": "_holder",
          "type": "address"
        },
        {
          "internalType": "uint256",
          "name": "_amount",
          "type": "uint256"
        }
      ],
      "name": "lock",
      "outputs": [],
      "stateMutability": "nonpayable",
      "type": "function"
    },
    {
      "inputs": [
        {
          "internalType": "address",
          "name": "_holder",
          "type": "address"
        }
      ],
      "name": "canUnlockAmount",
      "outputs": [
        {
          "internalType": "uint256",
          "name": "",
          "type": "uint256"
        }
      ],
      "stateMutability": "view",
      "type": "function"
    },
    {
      "inputs": [],
      "name": "unlock",
      "outputs": [],
      "stateMutability": "nonpayable",
      "type": "function"
    },
    {
      "inputs": [
        {
          "internalType": "address",
          "name": "_to",
          "type": "address"
        }
      ],
      "name": "transferAll",
      "outputs": [],
      "stateMutability": "nonpayable",
      "type": "function"
    },
    {
      "inputs": [
        {
          "internalType": "uint256",
          "name": "lockFromBlock_",
          "type": "uint256"
        }
      ],
      "name": "setLockFromBlock",
      "outputs": [],
      "stateMutability": "nonpayable",
      "type": "function"
    },
    {
      "inputs": [
        {
          "internalType": "uint256",
          "name": "lockToBlock_",
          "type": "uint256"
        }
      ],
      "name": "setLockToBlock",
      "outputs": [],
      "stateMutability": "nonpayable",
      "type": "function"
    },
    {
      "inputs": [
        {
          "internalType": "uint256",
          "name": "allowTransferOn_",
          "type": "uint256"
        }
      ],
      "name": "setAllowTransferOn",
      "outputs": [],
      "stateMutability": "nonpayable",
      "type": "function"
    }
  ],
  "bytecode": "0x608060405234801561001057600080fd5b50612817806100206000396000f3fe608060405234801561001057600080fd5b50600436106102955760003560e01c8063715018a611610167578063a457c2d7116100ce578063d547741f11610087578063d547741f14610541578063dd62ed3e14610554578063dd661bda14610567578063e866294a1461057a578063f2fde38b14610582578063f80f5dd51461059557610295565b8063a457c2d7146104da578063a69df4b5146104ed578063a9059cbb146104f5578063c683630d14610508578063c72359f11461051b578063ca7506e81461052e57610295565b806391d148541161012057806391d14854146104895780639358928b1461049c57806395d89b41146104a45780639c7f3315146104ac578063a217fddf146104bf578063a3a7e7f3146104c757610295565b8063715018a61461043657806379cc67901461043e5780637a997ab71461045157806389a2867c146104595780638da5cb5b1461046c5780638e875e1a1461048157610295565b8063355274ea1161020b578063426155b1116101c4578063426155b1146103cf57806342966c68146103e25780634b0ee02a146103f55780635a46d3b51461040857806366fc237b1461041b57806370a082311461042357610295565b8063355274ea1461037e57806336568abe1461038657806339137f8b1461039957806339509351146103a15780633a1aae35146103b457806340c10f19146103bc57610295565b8063202b17601161025d578063202b17601461030a57806323b872dd1461031d578063248a9ca314610330578063282d3fdf146103435780632f2ff15d14610356578063313ce5671461036957610295565b806301ffc9a71461029a57806306fdde03146102c3578063095ea7b3146102d857806318160ddd146102eb5780631bb0339514610300575b600080fd5b6102ad6102a8366004611f9e565b6105a8565b6040516102ba9190611ffb565b60405180910390f35b6102cb6105d5565b6040516102ba919061200f565b6102ad6102e6366004611f3b565b610667565b6102f3610684565b6040516102ba9190612006565b61030861068a565b005b6102f3610318366004611ead565b610771565b6102ad61032b366004611f00565b61083e565b6102f361033e366004611f64565b6108d5565b610308610351366004611f3b565b6108eb565b610308610364366004611f7c565b610a5d565b610371610a9b565b6040516102ba91906126f4565b6102f3610aa0565b610308610394366004611f7c565b610aa6565b610308610ae8565b6102ad6103af366004611f3b565b610b77565b6102f3610bc6565b6103086103ca366004611f3b565b610bcd565b6103086103dd366004611fc6565b610c16565b6103086103f0366004611f64565b610d1a565b6102f3610403366004611ead565b610d2b565b6102f3610416366004611ead565b610d5a565b6102f3610d76565b6102f3610431366004611ead565b610d7d565b610308610d98565b61030861044c366004611f3b565b610e21565b6102f3610e71565b6102f3610467366004611ead565b610e83565b610474610e9f565b6040516102ba9190611fe7565b6102f3610eae565b6102ad610497366004611f7c565b610eb5565b6102f3610ee1565b6102cb610efe565b6103086104ba366004611ead565b610f0d565b6102f3610f92565b6103086104d5366004611ead565b610f97565b6102ad6104e8366004611f3b565b611090565b61030861110b565b6102ad610503366004611f3b565b6111be565b6102ad610516366004611ead565b6111d2565b610308610529366004611f64565b6111ec565b61030861053c366004611f64565b611231565b61030861054f366004611f7c565b6112a6565b6102f3610562366004611ece565b6112ce565b610308610575366004611f64565b6112f9565b6102f361133e565b610308610590366004611ead565b611345565b6103086105a3366004611ead565b611406565b60006001600160e01b03198216637965db0b60e01b14806105cd57506105cd82611455565b90505b919050565b6060606880546105e490612770565b80601f016020809104026020016040519081016040528092919081815260200182805461061090612770565b801561065d5780601f106106325761010080835404028352916020019161065d565b820191906000526020600020905b81548152906001019060200180831161064057829003601f168201915b5050505050905090565b600061067b61067461146e565b8484611472565b50600192915050565b60675490565b600054610100900460ff16806106a3575060005460ff16155b6106c85760405162461bcd60e51b81526004016106bf906123d8565b60405180910390fd5b600054610100900460ff161580156106f3576000805460ff1961ff0019909116610100171660011790555b610705600061070061146e565b610a8d565b61071f6000805160206127c283398151915261036461146e565b61072761146e565b6001600160a01b03167f4790a4adb426ca2345bb5108f6e454eae852a7bf687544cd66a7270dff3a41d660405160405180910390a2801561076e576000805461ff00191690555b50565b600061016354431015610786575060006105d0565b6101645443106107b057506001600160a01b038116600090815261016560205260409020546105d0565b6001600160a01b038216600090815261016660205260408120546107d49043612702565b6001600160a01b038416600090815261016660205260408120546101645492935090916108019190612702565b6001600160a01b03851660009081526101656020526040902054909150819061082b90849061273a565b610835919061271a565b925050506105d0565b600061084b848484611526565b6001600160a01b03841660009081526066602052604081208161086c61146e565b6001600160a01b03166001600160a01b03168152602001908152602001600020549050828110156108af5760405162461bcd60e51b81526004016106bf90612426565b6108ca856108bb61146e565b6108c58685612759565b611472565b506001949350505050565b600090815261012e602052604090206001015490565b6108f361146e565b6001600160a01b0316610904610e9f565b6001600160a01b03161461092a5760405162461bcd60e51b81526004016106bf9061246e565b6001600160a01b0382166109505760405162461bcd60e51b81526004016106bf906124a3565b61095982610d7d565b8111156109785760405162461bcd60e51b81526004016106bf9061230f565b610983823083611526565b6001600160a01b038216600090815261016560205260409020546109a8908290612702565b6001600160a01b03831660009081526101656020526040902055610161546109d1908290612702565b61016155610163546001600160a01b038316600090815261016660205260409020541015610a1857610163546001600160a01b038316600090815261016660205260409020555b816001600160a01b03167f625fed9875dada8643f2418b838ae0bc78d9a148a18eee4ee1979ff0f3f5d42782604051610a519190612006565b60405180910390a25050565b610a71610a69836108d5565b61049761146e565b610a8d5760405162461bcd60e51b81526004016106bf906120d4565b610a978282611571565b5050565b601290565b60975490565b610aae61146e565b6001600160a01b0316816001600160a01b031614610ade5760405162461bcd60e51b81526004016106bf9061266e565b610a9782826115f9565b610b026000805160206127c283398151915261049761146e565b610b1e5760405162461bcd60e51b81526004016106bf90612277565b610b386000805160206127c283398151915261039461146e565b610b4061146e565b6001600160a01b03167fde8cf212af7ce38b2840785a2768d97ff2dbf3c21b516961cec0061e134c2a1e60405160405180910390a2565b600061067b610b8461146e565b848460666000610b9261146e565b6001600160a01b03908116825260208083019390935260409182016000908120918b16815292529020546108c59190612702565b6101615490565b610bd561146e565b6001600160a01b0316610be6610e9f565b6001600160a01b031614610c0c5760405162461bcd60e51b81526004016106bf9061246e565b610a97828261167f565b600054610100900460ff1680610c2f575060005460ff16155b610c4b5760405162461bcd60e51b81526004016106bf906123d8565b600054610100900460ff16158015610c76576000805460ff1961ff0019909116610100171660011790555b6a52b7d2dcc80cd2e40000006101605562c2747161016255610163839055610164829055604080518082018252600a8152692222ac29902a37b5b2b760b11b602080830191909152825180840190935260048352634445585360e01b90830152610cdf91611689565b610ceb610160546116fb565b610cf3611781565b610cfb611805565b610d0361068a565b8015610d15576000805461ff00191690555b505050565b61076e610d2561146e565b82611875565b6000610d3682610d7d565b6001600160a01b038316600090815261016560205260409020546105cd9190612702565b6001600160a01b03166000908152610165602052604090205490565b6101635481565b6001600160a01b031660009081526065602052604090205490565b610da061146e565b6001600160a01b0316610db1610e9f565b6001600160a01b031614610dd75760405162461bcd60e51b81526004016106bf9061246e565b6033546040516000916001600160a01b0316907f8be0079c531659141344cd1fd0a4f28419497f9722a3daafe3b4186f6b6457e0908390a3603380546001600160a01b0319169055565b6000610e2f8361056261146e565b905081811015610e515760405162461bcd60e51b81526004016106bf906124e4565b610e6783610e5d61146e565b6108c58585612759565b610d158383611875565b6000805160206127c283398151915281565b6001600160a01b03166000908152610166602052604090205490565b6033546001600160a01b031690565b6101645481565b600091825261012e602090815260408084206001600160a01b0393909316845291905290205460ff1690565b600061016154610eef610684565b610ef99190612759565b905090565b6060606980546105e490612770565b610f276000805160206127c283398151915261049761146e565b610f435760405162461bcd60e51b81526004016106bf90612277565b610f5b6000805160206127c2833981519152826112a6565b6040516001600160a01b038216907f79bc96e8fb893a32b4429ae9fd9084cdb98be910b9c7cdbb4307cc96732c7ec790600090a250565b600081565b3360009081526101656020526040808220546001600160a01b0384168352912054610fc29190612702565b6001600160a01b038216600090815261016560209081526040808320939093556101635461016690915291902054101561101557610163546001600160a01b038216600090815261016660205260409020555b3360009081526101666020526040808220546001600160a01b0384168352912054101561105e573360009081526101666020526040808220546001600160a01b03841683529120555b3360008181526101656020908152604080832083905561016690915281205561076e908261108b82610d7d565b611526565b6000806066600061109f61146e565b6001600160a01b03908116825260208083019390935260409182016000908120918816815292529020549050828110156110eb5760405162461bcd60e51b81526004016106bf90612629565b6111016110f661146e565b856108c58685612759565b5060019392505050565b33600090815261016560205260409020546111385760405162461bcd60e51b81526004016106bf90612344565b600061114333610771565b905061114e30610d7d565b8111156111615761115e30610d7d565b90505b61116c303383611526565b3360009081526101656020526040902054611188908290612759565b3360009081526101656020908152604080832093909355610166905220439055610161546111b7908290612759565b6101615550565b600061067b6111cb61146e565b8484611526565b60006105cd6000805160206127c283398151915283610eb5565b6111f461146e565b6001600160a01b0316611205610e9f565b6001600160a01b03161461122b5760405162461bcd60e51b81526004016106bf9061246e565b61016455565b61123961146e565b6001600160a01b031661124a610e9f565b6001600160a01b0316146112705760405162461bcd60e51b81526004016106bf9061246e565b610162544310801561128457506101625481105b6112a05760405162461bcd60e51b81526004016106bf906121ed565b61016255565b6112b2610a69836108d5565b610ade5760405162461bcd60e51b81526004016106bf90612388565b6001600160a01b03918216600090815260666020908152604080832093909416825291909152205490565b61130161146e565b6001600160a01b0316611312610e9f565b6001600160a01b0316146113385760405162461bcd60e51b81526004016106bf9061246e565b61016355565b6101625481565b61134d61146e565b6001600160a01b031661135e610e9f565b6001600160a01b0316146113845760405162461bcd60e51b81526004016106bf9061246e565b6001600160a01b0381166113aa5760405162461bcd60e51b81526004016106bf90612165565b6033546040516001600160a01b038084169216907f8be0079c531659141344cd1fd0a4f28419497f9722a3daafe3b4186f6b6457e090600090a3603380546001600160a01b0319166001600160a01b0392909216919091179055565b61141e6000805160206127c283398151915282610a5d565b6040516001600160a01b038216907f4790a4adb426ca2345bb5108f6e454eae852a7bf687544cd66a7270dff3a41d690600090a250565b6001600160e01b031981166301ffc9a760e01b14919050565b3390565b6001600160a01b0383166114985760405162461bcd60e51b81526004016106bf906125e5565b6001600160a01b0382166114be5760405162461bcd60e51b81526004016106bf906121ab565b6001600160a01b0380841660008181526066602090815260408083209487168084529490915290819020849055517f8c5be1e5ebec7d5bd14f71427d1e84f3dd0314c0f7b2291e5b200ac8c7c3b92590611519908590612006565b60405180910390a3505050565b6101625443118061154a575061154a6000805160206127c283398151915284610eb5565b6115665760405162461bcd60e51b81526004016106bf906122c4565b610d1583838361195b565b61157b8282610eb5565b610a9757600082815261012e602090815260408083206001600160a01b03851684529091529020805460ff191660011790556115b561146e565b6001600160a01b0316816001600160a01b0316837f2f8788117e7eff1d82e926ec794901d17c78024a50270940304540a733656f0d60405160405180910390a45050565b6116038282610eb5565b15610a9757600082815261012e602090815260408083206001600160a01b03851684529091529020805460ff1916905561163b61146e565b6001600160a01b0316816001600160a01b0316837ff6391f5c32d9c69d2a47ea670b442974b53935d1edc7fd64eb21e047a839171b60405160405180910390a45050565b610a978282611a83565b600054610100900460ff16806116a2575060005460ff16155b6116be5760405162461bcd60e51b81526004016106bf906123d8565b600054610100900460ff161580156116e9576000805460ff1961ff0019909116610100171660011790555b6116f1611ac6565b610d038383611b39565b600054610100900460ff1680611714575060005460ff16155b6117305760405162461bcd60e51b81526004016106bf906123d8565b600054610100900460ff1615801561175b576000805460ff1961ff0019909116610100171660011790555b611763611ac6565b61176c82611bd7565b8015610a97576000805461ff00191690555050565b600054610100900460ff168061179a575060005460ff16155b6117b65760405162461bcd60e51b81526004016106bf906123d8565b600054610100900460ff161580156117e1576000805460ff1961ff0019909116610100171660011790555b6117e9611ac6565b6117f1611c71565b801561076e576000805461ff001916905550565b600054610100900460ff168061181e575060005460ff16155b61183a5760405162461bcd60e51b81526004016106bf906123d8565b600054610100900460ff16158015611865576000805460ff1961ff0019909116610100171660011790555b61186d611ac6565b6117f1611ac6565b6001600160a01b03821661189b5760405162461bcd60e51b81526004016106bf90612528565b6118a782600083610d15565b6001600160a01b038216600090815260656020526040902054818110156118e05760405162461bcd60e51b81526004016106bf90612123565b6118ea8282612759565b6001600160a01b03841660009081526065602052604081209190915560678054849290611918908490612759565b90915550506040516000906001600160a01b038516907fddf252ad1be2c89b69c2b068fc378daa952ba7f163c4a11628f55a4df523b3ef90611519908690612006565b6001600160a01b0383166119815760405162461bcd60e51b81526004016106bf90612569565b6001600160a01b0382166119a75760405162461bcd60e51b81526004016106bf90612062565b6119b2838383610d15565b6001600160a01b038316600090815260656020526040902054818110156119eb5760405162461bcd60e51b81526004016106bf90612231565b6119f58282612759565b6001600160a01b038086166000908152606560205260408082209390935590851681529081208054849290611a2b908490612702565b92505081905550826001600160a01b0316846001600160a01b03167fddf252ad1be2c89b69c2b068fc378daa952ba7f163c4a11628f55a4df523b3ef84604051611a759190612006565b60405180910390a350505050565b611a8b610aa0565b81611a94610684565b611a9e9190612702565b1115611abc5760405162461bcd60e51b81526004016106bf906125ae565b610a978282611d3d565b600054610100900460ff1680611adf575060005460ff16155b611afb5760405162461bcd60e51b81526004016106bf906123d8565b600054610100900460ff161580156117f1576000805460ff1961ff001990911661010017166001179055801561076e576000805461ff001916905550565b600054610100900460ff1680611b52575060005460ff16155b611b6e5760405162461bcd60e51b81526004016106bf906123d8565b600054610100900460ff16158015611b99576000805460ff1961ff0019909116610100171660011790555b8251611bac906068906020860190611dfd565b508151611bc0906069906020850190611dfd565b508015610d15576000805461ff0019169055505050565b600054610100900460ff1680611bf0575060005460ff16155b611c0c5760405162461bcd60e51b81526004016106bf906123d8565b600054610100900460ff16158015611c37576000805460ff1961ff0019909116610100171660011790555b60008211611c575760405162461bcd60e51b81526004016106bf906120a5565b60978290558015610a97576000805461ff00191690555050565b600054610100900460ff1680611c8a575060005460ff16155b611ca65760405162461bcd60e51b81526004016106bf906123d8565b600054610100900460ff16158015611cd1576000805460ff1961ff0019909116610100171660011790555b6000611cdb61146e565b603380546001600160a01b0319166001600160a01b038316908117909155604051919250906000907f8be0079c531659141344cd1fd0a4f28419497f9722a3daafe3b4186f6b6457e0908290a350801561076e576000805461ff001916905550565b6001600160a01b038216611d635760405162461bcd60e51b81526004016106bf906126bd565b611d6f60008383610d15565b8060676000828254611d819190612702565b90915550506001600160a01b03821660009081526065602052604081208054839290611dae908490612702565b90915550506040516001600160a01b038316906000907fddf252ad1be2c89b69c2b068fc378daa952ba7f163c4a11628f55a4df523b3ef90611df1908590612006565b60405180910390a35050565b828054611e0990612770565b90600052602060002090601f016020900481019282611e2b5760008555611e71565b82601f10611e4457805160ff1916838001178555611e71565b82800160010185558215611e71579182015b82811115611e71578251825591602001919060010190611e56565b50611e7d929150611e81565b5090565b5b80821115611e7d5760008155600101611e82565b80356001600160a01b03811681146105d057600080fd5b600060208284031215611ebe578081fd5b611ec782611e96565b9392505050565b60008060408385031215611ee0578081fd5b611ee983611e96565b9150611ef760208401611e96565b90509250929050565b600080600060608486031215611f14578081fd5b611f1d84611e96565b9250611f2b60208501611e96565b9150604084013590509250925092565b60008060408385031215611f4d578182fd5b611f5683611e96565b946020939093013593505050565b600060208284031215611f75578081fd5b5035919050565b60008060408385031215611f8e578182fd5b82359150611ef760208401611e96565b600060208284031215611faf578081fd5b81356001600160e01b031981168114611ec7578182fd5b60008060408385031215611fd8578182fd5b50508035926020909101359150565b6001600160a01b0391909116815260200190565b901515815260200190565b90815260200190565b6000602080835283518082850152825b8181101561203b5785810183015185820160400152820161201f565b8181111561204c5783604083870101525b50601f01601f1916929092016040019392505050565b60208082526023908201527f45524332303a207472616e7366657220746f20746865207a65726f206164647260408201526265737360e81b606082015260800190565b602080825260159082015274045524332304361707065643a20636170206973203605c1b604082015260600190565b6020808252602f908201527f416363657373436f6e74726f6c3a2073656e646572206d75737420626520616e60408201526e0818591b5a5b881d1bc819dc985b9d608a1b606082015260800190565b60208082526022908201527f45524332303a206275726e20616d6f756e7420657863656564732062616c616e604082015261636560f01b606082015260800190565b60208082526026908201527f4f776e61626c653a206e6577206f776e657220697320746865207a65726f206160408201526564647265737360d01b606082015260800190565b60208082526022908201527f45524332303a20617070726f766520746f20746865207a65726f206164647265604082015261737360f01b606082015260800190565b60208082526024908201527f446578537761703a20696e76616c6964206e657720616c6c6f775472616e736660408201526332b927b760e11b606082015260800190565b60208082526026908201527f45524332303a207472616e7366657220616d6f756e7420657863656564732062604082015265616c616e636560d01b606082015260800190565b6020808252602d908201527f57686974656c697374526f6c653a2043616c6c6572206973206e6f742061207760408201526c686974656c69737420726f6c6560981b606082015260800190565b6020808252602b908201527f446578537761703a20796f757220444558532063616e2774207472616e73666560408201526a72207269676874206e6f7760a81b606082015260800190565b6020808252818101527f446578537761703a206c6f636b20616d6f756e74206f76657220626c616e6365604082015260600190565b60208082526024908201527f446578537761703a207468657265206172656e2774204445585320746f20756e6040820152636c6f636b60e01b606082015260800190565b60208082526030908201527f416363657373436f6e74726f6c3a2073656e646572206d75737420626520616e60408201526f2061646d696e20746f207265766f6b6560801b606082015260800190565b6020808252602e908201527f496e697469616c697a61626c653a20636f6e747261637420697320616c72656160408201526d191e481a5b9a5d1a585b1a5e995960921b606082015260800190565b60208082526028908201527f45524332303a207472616e7366657220616d6f756e74206578636565647320616040820152676c6c6f77616e636560c01b606082015260800190565b6020808252818101527f4f776e61626c653a2063616c6c6572206973206e6f7420746865206f776e6572604082015260600190565b60208082526021908201527f446578537761703a206c6f636b20746f20746865207a65726f206164647265736040820152607360f81b606082015260800190565b60208082526024908201527f45524332303a206275726e20616d6f756e74206578636565647320616c6c6f77604082015263616e636560e01b606082015260800190565b60208082526021908201527f45524332303a206275726e2066726f6d20746865207a65726f206164647265736040820152607360f81b606082015260800190565b60208082526025908201527f45524332303a207472616e736665722066726f6d20746865207a65726f206164604082015264647265737360d81b606082015260800190565b60208082526019908201527f45524332304361707065643a2063617020657863656564656400000000000000604082015260600190565b60208082526024908201527f45524332303a20617070726f76652066726f6d20746865207a65726f206164646040820152637265737360e01b606082015260800190565b60208082526025908201527f45524332303a2064656372656173656420616c6c6f77616e63652062656c6f77604082015264207a65726f60d81b606082015260800190565b6020808252602f908201527f416363657373436f6e74726f6c3a2063616e206f6e6c792072656e6f756e636560408201526e103937b632b9903337b91039b2b63360891b606082015260800190565b6020808252601f908201527f45524332303a206d696e7420746f20746865207a65726f206164647265737300604082015260600190565b60ff91909116815260200190565b60008219821115612715576127156127ab565b500190565b60008261273557634e487b7160e01b81526012600452602481fd5b500490565b6000816000190483118215151615612754576127546127ab565b500290565b60008282101561276b5761276b6127ab565b500390565b60028104600182168061278457607f821691505b602082108114156127a557634e487b7160e01b600052602260045260246000fd5b50919050565b634e487b7160e01b600052601160045260246000fdfedc72ed553f2544c34465af23b847953efeb813428162d767f9ba5f4013be6760a2646970667358221220b776fbeb53d3aff907eb01b68282ccbcb8a7eb6abb0b9ac4726a2cfab822880864736f6c63430008000033",
  "immutableReferences": {},
  "source": "// SPDX-License-Identifier: UNLICENSED\n\npragma solidity ^0.8.0;\n\nimport \"@openzeppelin/contracts-upgradeable/access/OwnableUpgradeable.sol\";\nimport \"@openzeppelin/contracts-upgradeable/token/ERC20/ERC20Upgradeable.sol\";\nimport \"@openzeppelin/contracts-upgradeable/token/ERC20/extensions/ERC20CappedUpgradeable.sol\";\nimport \"@openzeppelin/contracts-upgradeable/token/ERC20/extensions/ERC20BurnableUpgradeable.sol\";\nimport \"@openzeppelin/contracts-upgradeable/access/OwnableUpgradeable.sol\";\nimport \"@openzeppelin/contracts-upgradeable/proxy/utils/Initializable.sol\";\n\nimport \"./WhitelistRole.sol\";\n\n// DEXS Token based on ERC-20 standard\ncontract DexSwap is Initializable, OwnableUpgradeable, ERC20Upgradeable, ERC20CappedUpgradeable, ERC20BurnableUpgradeable, WhitelistRole {\n    uint256 private _cap;                                   // Maximum supply\n    uint256 private _totalLock;                             // Pre-caculate total locked DEXS tokens\n\n    uint256 public allowTransferOn;\n    uint256 public lockFromBlock;                           // Block number that DEXS token is locked from\n    uint256 public lockToBlock;                             // Block number that DEXS token is locked to\n\n    mapping(address => uint256) private _locks;             // Current locked DEXS of each address\n    mapping(address => uint256) private _lastUnlockBlock;   // The last block number that a address's DEXS is unlocked\n\n    event Lock(address indexed to, uint256 value);\n\n    function __DexSwap_init(uint256 lockFromBlock_, uint256 lockToBlock_) public initializer{\n        _cap = 100000000e18;\n        allowTransferOn = 12743793;                         // Blocker number 12743793 (on mainnet) ~ 2021-07-01 00:00:00 GMT+8 timezone\n        lockFromBlock = lockFromBlock_;\n        lockToBlock = lockToBlock_;\n        __ERC20_init(\"DEXS Token\", \"DEXS\");\n        __ERC20Capped_init(_cap);\n        __Ownable_init();\n        __ERC20Burnable_init();\n        __WhitelistRole_init();\n    }\n\n    /**\n     * @dev Return current circulatable DEXS tokens.\n     */\n    function circulatingSupply() public view returns (uint256) {\n        return super.totalSupply() - _totalLock;\n    }\n\n    /**\n     * @dev Return total locked DEXS tokens.\n     */\n    function totalLock() public view returns (uint256) {\n        return _totalLock;\n    }\n\n    /**\n     * @dev See {ERC20-_mint}.\n     * Can only be called by the current owner.\n     */\n    function mint(address _to, uint256 _amount) public onlyOwner {\n        _mint(_to, _amount);\n    }\n\n    /**\n     * @dev Return total DEXS balance of a address.\n     */\n    function totalBalanceOf(address _holder) public view returns (uint256) {\n        return _locks[_holder] + balanceOf(_holder);\n    }\n\n    /**\n     * @dev Return locked DEXS token of a address.\n     */\n    function lockOf(address _holder) public view returns (uint256) {\n        return _locks[_holder];\n    }\n\n    /**\n     * @dev Return block number that contains the last unlock call by a address.\n     */\n    function lastUnlockBlock(address _holder) public view returns (uint256) {\n        return _lastUnlockBlock[_holder];\n    }\n\n    /**\n     * @dev Lock a DEXS token amount of a address.\n     */\n    function lock(address _holder, uint256 _amount) public onlyOwner {\n        require(_holder != address(0), \"DexSwap: lock to the zero address\");\n        require(_amount <= balanceOf(_holder), \"DexSwap: lock amount over blance\");\n\n        _transfer(_holder, address(this), _amount);\n\n        _locks[_holder] = _locks[_holder] + _amount;\n        _totalLock = _totalLock + _amount;\n        if (_lastUnlockBlock[_holder] < lockFromBlock) {\n            _lastUnlockBlock[_holder] = lockFromBlock;\n        }\n        emit Lock(_holder, _amount);\n    }\n\n    /**\n     * @dev Return number of DEXS token that the address can unlock.\n     */\n    function canUnlockAmount(address _holder) public view returns (uint256) {\n        if (block.number < lockFromBlock) {\n            return 0;\n        }\n        else if (block.number >= lockToBlock) {\n            return _locks[_holder];\n        }\n        else {\n            uint256 releaseBlock = block.number + _lastUnlockBlock[_holder];\n            uint256 numberLockBlock = lockToBlock + _lastUnlockBlock[_holder];\n            return _locks[_holder] * releaseBlock / numberLockBlock;\n        }\n    }\n\n    /**\n     * @dev Unlock DEXS token for the sender\n     */\n    function unlock() public {\n        require(_locks[msg.sender] > 0, \"DexSwap: there aren't DEXS to unlock\");\n        \n        uint256 amount = canUnlockAmount(msg.sender);\n        if (amount > balanceOf(address(this))) {\n            amount = balanceOf(address(this));\n        }\n        _transfer(address(this), msg.sender, amount);\n        _locks[msg.sender] = _locks[msg.sender] - amount;\n        _lastUnlockBlock[msg.sender] = block.number;\n        _totalLock = _totalLock - amount;\n    }\n\n    /**\n     * @dev Dev address migrate all balance to a multi sig address\n     */\n    function transferAll(address _to) public {\n        _locks[_to] = _locks[_to] + _locks[msg.sender];\n\n        if (_lastUnlockBlock[_to] < lockFromBlock) {\n            _lastUnlockBlock[_to] = lockFromBlock;\n        }\n\n        if (_lastUnlockBlock[_to] < _lastUnlockBlock[msg.sender]) {\n            _lastUnlockBlock[_to] = _lastUnlockBlock[msg.sender];\n        }\n\n        _locks[msg.sender] = 0;\n        _lastUnlockBlock[msg.sender] = 0;\n\n        _transfer(msg.sender, _to, balanceOf(msg.sender));\n    }\n\n    /**\n     * @dev See {ERC20Capped-_mint}.\n     */\n    function _mint(address account, uint256 amount) internal virtual override(ERC20Upgradeable, ERC20CappedUpgradeable) {\n        super._mint(account, amount);\n    }\n\n    /**\n     * @dev See {ERC20-_transfer}.\n     */\n    function _transfer(address sender, address recipient, uint256 amount) internal virtual override(ERC20Upgradeable) {\n        require(block.number > allowTransferOn || hasRole(WHITELIST_ROLE, sender), \"DexSwap: your DEXS can't transfer right now\");\n        super._transfer(sender, recipient, amount);\n    }\n    /**\n     * @dev Set from block to lock balance\n     * Can only be called by the current owner.\n     */\n    function setLockFromBlock(uint256 lockFromBlock_) external onlyOwner{\n        lockFromBlock = lockFromBlock_;\n    }\n    /**\n     * @dev Set to block to lock balance\n     * Can only be called by the current owner.\n     */\n    function setLockToBlock(uint256 lockToBlock_) external onlyOwner{\n        lockToBlock = lockToBlock_;\n    }\n    /**\n     * @dev Set block allow transfer on\n     * Can only be called by the current owner.\n     */\n    function setAllowTransferOn(uint256 allowTransferOn_) external onlyOwner{\n        require(block.number < allowTransferOn && allowTransferOn_ < allowTransferOn, \"DexSwap: invalid new allowTransferOn\");\n        allowTransferOn = allowTransferOn_;\n    }\n}",
  "sourcePath": "/mnt/c/Users/dropdisco/Downloads/contract-proxy/sone-token-contracts-main/contracts/DexSwap.sol",
  "compiler": {
    "name": "solc",
    "version": "0.8.0+commit.c7dfd78e.Emscripten.clang"
  },
  "schemaVersion": "3.4.1",
  "updatedAt": "2021-06-05T15:48:00.349Z",
  "devdoc": {
    "kind": "dev",
    "methods": {
      "allowance(address,address)": {
        "details": "See {IERC20-allowance}."
      },
      "approve(address,uint256)": {
        "details": "See {IERC20-approve}. Requirements: - `spender` cannot be the zero address."
      },
      "balanceOf(address)": {
        "details": "See {IERC20-balanceOf}."
      },
      "burn(uint256)": {
        "details": "Destroys `amount` tokens from the caller. See {ERC20-_burn}."
      },
      "burnFrom(address,uint256)": {
        "details": "Destroys `amount` tokens from `account`, deducting from the caller's allowance. See {ERC20-_burn} and {ERC20-allowance}. Requirements: - the caller must have allowance for ``accounts``'s tokens of at least `amount`."
      },
      "canUnlockAmount(address)": {
        "details": "Return number of DEXS token that the address can unlock."
      },
      "cap()": {
        "details": "Returns the cap on the token's total supply."
      },
      "circulatingSupply()": {
        "details": "Return current circulatable DEXS tokens."
      },
      "decimals()": {
        "details": "Returns the number of decimals used to get its user representation. For example, if `decimals` equals `2`, a balance of `505` tokens should be displayed to a user as `5,05` (`505 / 10 ** 2`). Tokens usually opt for a value of 18, imitating the relationship between Ether and Wei. This is the value {ERC20} uses, unless this function is overloaded; NOTE: This information is only used for _display_ purposes: it in no way affects any of the arithmetic of the contract, including {IERC20-balanceOf} and {IERC20-transfer}."
      },
      "decreaseAllowance(address,uint256)": {
        "details": "Atomically decreases the allowance granted to `spender` by the caller. This is an alternative to {approve} that can be used as a mitigation for problems described in {IERC20-approve}. Emits an {Approval} event indicating the updated allowance. Requirements: - `spender` cannot be the zero address. - `spender` must have allowance for the caller of at least `subtractedValue`."
      },
      "getRoleAdmin(bytes32)": {
        "details": "Returns the admin role that controls `role`. See {grantRole} and {revokeRole}. To change a role's admin, use {_setRoleAdmin}."
      },
      "grantRole(bytes32,address)": {
        "details": "Grants `role` to `account`. If `account` had not been already granted `role`, emits a {RoleGranted} event. Requirements: - the caller must have ``role``'s admin role."
      },
      "hasRole(bytes32,address)": {
        "details": "Returns `true` if `account` has been granted `role`."
      },
      "increaseAllowance(address,uint256)": {
        "details": "Atomically increases the allowance granted to `spender` by the caller. This is an alternative to {approve} that can be used as a mitigation for problems described in {IERC20-approve}. Emits an {Approval} event indicating the updated allowance. Requirements: - `spender` cannot be the zero address."
      },
      "lastUnlockBlock(address)": {
        "details": "Return block number that contains the last unlock call by a address."
      },
      "lock(address,uint256)": {
        "details": "Lock a DEXS token amount of a address."
      },
      "lockOf(address)": {
        "details": "Return locked DEXS token of a address."
      },
      "mint(address,uint256)": {
        "details": "See {ERC20-_mint}. Can only be called by the current owner."
      },
      "name()": {
        "details": "Returns the name of the token."
      },
      "owner()": {
        "details": "Returns the address of the current owner."
      },
      "renounceOwnership()": {
        "details": "Leaves the contract without owner. It will not be possible to call `onlyOwner` functions anymore. Can only be called by the current owner. NOTE: Renouncing ownership will leave the contract without an owner, thereby removing any functionality that is only available to the owner."
      },
      "renounceRole(bytes32,address)": {
        "details": "Revokes `role` from the calling account. Roles are often managed via {grantRole} and {revokeRole}: this function's purpose is to provide a mechanism for accounts to lose their privileges if they are compromised (such as when a trusted device is misplaced). If the calling account had been granted `role`, emits a {RoleRevoked} event. Requirements: - the caller must be `account`."
      },
      "revokeRole(bytes32,address)": {
        "details": "Revokes `role` from `account`. If `account` had been granted `role`, emits a {RoleRevoked} event. Requirements: - the caller must have ``role``'s admin role."
      },
      "setAllowTransferOn(uint256)": {
        "details": "Set block allow transfer on Can only be called by the current owner."
      },
      "setLockFromBlock(uint256)": {
        "details": "Set from block to lock balance Can only be called by the current owner."
      },
      "setLockToBlock(uint256)": {
        "details": "Set to block to lock balance Can only be called by the current owner."
      },
      "supportsInterface(bytes4)": {
        "details": "See {IERC165-supportsInterface}."
      },
      "symbol()": {
        "details": "Returns the symbol of the token, usually a shorter version of the name."
      },
      "totalBalanceOf(address)": {
        "details": "Return total DEXS balance of a address."
      },
      "totalLock()": {
        "details": "Return total locked DEXS tokens."
      },
      "totalSupply()": {
        "details": "See {IERC20-totalSupply}."
      },
      "transfer(address,uint256)": {
        "details": "See {IERC20-transfer}. Requirements: - `recipient` cannot be the zero address. - the caller must have a balance of at least `amount`."
      },
      "transferAll(address)": {
        "details": "Dev address migrate all balance to a multi sig address"
      },
      "transferFrom(address,address,uint256)": {
        "details": "See {IERC20-transferFrom}. Emits an {Approval} event indicating the updated allowance. This is not required by the EIP. See the note at the beginning of {ERC20}. Requirements: - `sender` and `recipient` cannot be the zero address. - `sender` must have a balance of at least `amount`. - the caller must have allowance for ``sender``'s tokens of at least `amount`."
      },
      "transferOwnership(address)": {
        "details": "Transfers ownership of the contract to a new account (`newOwner`). Can only be called by the current owner."
      },
      "unlock()": {
        "details": "Unlock DEXS token for the sender"
      }
    },
    "version": 1
  },
  "userdoc": {
    "kind": "user",
    "methods": {},
    "version": 1
  }
}