{
  "contractName": "DexSwapV2",
  "abi": [
    {
      "anonymous": false,
      "inputs": [
        {
          "indexed": true,
          "internalType": "address",
          "name": "owner",
          "type": "address"
        },
        {
          "indexed": true,
          "internalType": "address",
          "name": "spender",
          "type": "address"
        },
        {
          "indexed": false,
          "internalType": "uint256",
          "name": "value",
          "type": "uint256"
        }
      ],
      "name": "Approval",
      "type": "event"
    },
    {
      "anonymous": false,
      "inputs": [
        {
          "indexed": true,
          "internalType": "address",
          "name": "to",
          "type": "address"
        },
        {
          "indexed": false,
          "internalType": "uint256",
          "name": "value",
          "type": "uint256"
        }
      ],
      "name": "Lock",
      "type": "event"
    },
    {
      "anonymous": false,
      "inputs": [
        {
          "indexed": true,
          "internalType": "address",
          "name": "previousOwner",
          "type": "address"
        },
        {
          "indexed": true,
          "internalType": "address",
          "name": "newOwner",
          "type": "address"
        }
      ],
      "name": "OwnershipTransferred",
      "type": "event"
    },
    {
      "anonymous": false,
      "inputs": [
        {
          "indexed": true,
          "internalType": "bytes32",
          "name": "role",
          "type": "bytes32"
        },
        {
          "indexed": true,
          "internalType": "bytes32",
          "name": "previousAdminRole",
          "type": "bytes32"
        },
        {
          "indexed": true,
          "internalType": "bytes32",
          "name": "newAdminRole",
          "type": "bytes32"
        }
      ],
      "name": "RoleAdminChanged",
      "type": "event"
    },
    {
      "anonymous": false,
      "inputs": [
        {
          "indexed": true,
          "internalType": "bytes32",
          "name": "role",
          "type": "bytes32"
        },
        {
          "indexed": true,
          "internalType": "address",
          "name": "account",
          "type": "address"
        },
        {
          "indexed": true,
          "internalType": "address",
          "name": "sender",
          "type": "address"
        }
      ],
      "name": "RoleGranted",
      "type": "event"
    },
    {
      "anonymous": false,
      "inputs": [
        {
          "indexed": true,
          "internalType": "bytes32",
          "name": "role",
          "type": "bytes32"
        },
        {
          "indexed": true,
          "internalType": "address",
          "name": "account",
          "type": "address"
        },
        {
          "indexed": true,
          "internalType": "address",
          "name": "sender",
          "type": "address"
        }
      ],
      "name": "RoleRevoked",
      "type": "event"
    },
    {
      "anonymous": false,
      "inputs": [
        {
          "indexed": true,
          "internalType": "address",
          "name": "from",
          "type": "address"
        },
        {
          "indexed": true,
          "internalType": "address",
          "name": "to",
          "type": "address"
        },
        {
          "indexed": false,
          "internalType": "uint256",
          "name": "value",
          "type": "uint256"
        }
      ],
      "name": "Transfer",
      "type": "event"
    },
    {
      "anonymous": false,
      "inputs": [
        {
          "indexed": true,
          "internalType": "address",
          "name": "account",
          "type": "address"
        }
      ],
      "name": "WhitelistAdded",
      "type": "event"
    },
    {
      "anonymous": false,
      "inputs": [
        {
          "indexed": true,
          "internalType": "address",
          "name": "account",
          "type": "address"
        }
      ],
      "name": "WhitelistRemoved",
      "type": "event"
    },
    {
      "anonymous": false,
      "inputs": [
        {
          "indexed": true,
          "internalType": "address",
          "name": "account",
          "type": "address"
        }
      ],
      "name": "WhitelistRevoked",
      "type": "event"
    },
    {
      "inputs": [],
      "name": "DEFAULT_ADMIN_ROLE",
      "outputs": [
        {
          "internalType": "bytes32",
          "name": "",
          "type": "bytes32"
        }
      ],
      "stateMutability": "view",
      "type": "function"
    },
    {
      "inputs": [],
      "name": "WHITELIST_ROLE",
      "outputs": [
        {
          "internalType": "bytes32",
          "name": "",
          "type": "bytes32"
        }
      ],
      "stateMutability": "view",
      "type": "function"
    },
    {
      "inputs": [],
      "name": "__WhitelistRole_init",
      "outputs": [],
      "stateMutability": "nonpayable",
      "type": "function"
    },
    {
      "inputs": [
        {
          "internalType": "address",
          "name": "account",
          "type": "address"
        }
      ],
      "name": "addWhitelist",
      "outputs": [],
      "stateMutability": "nonpayable",
      "type": "function"
    },
    {
      "inputs": [],
      "name": "allowTransferOn",
      "outputs": [
        {
          "internalType": "uint256",
          "name": "",
          "type": "uint256"
        }
      ],
      "stateMutability": "view",
      "type": "function"
    },
    {
      "inputs": [
        {
          "internalType": "address",
          "name": "owner",
          "type": "address"
        },
        {
          "internalType": "address",
          "name": "spender",
          "type": "address"
        }
      ],
      "name": "allowance",
      "outputs": [
        {
          "internalType": "uint256",
          "name": "",
          "type": "uint256"
        }
      ],
      "stateMutability": "view",
      "type": "function"
    },
    {
      "inputs": [
        {
          "internalType": "address",
          "name": "spender",
          "type": "address"
        },
        {
          "internalType": "uint256",
          "name": "amount",
          "type": "uint256"
        }
      ],
      "name": "approve",
      "outputs": [
        {
          "internalType": "bool",
          "name": "",
          "type": "bool"
        }
      ],
      "stateMutability": "nonpayable",
      "type": "function"
    },
    {
      "inputs": [
        {
          "internalType": "address",
          "name": "account",
          "type": "address"
        }
      ],
      "name": "balanceOf",
      "outputs": [
        {
          "internalType": "uint256",
          "name": "",
          "type": "uint256"
        }
      ],
      "stateMutability": "view",
      "type": "function"
    },
    {
      "inputs": [
        {
          "internalType": "uint256",
          "name": "amount",
          "type": "uint256"
        }
      ],
      "name": "burn",
      "outputs": [],
      "stateMutability": "nonpayable",
      "type": "function"
    },
    {
      "inputs": [
        {
          "internalType": "address",
          "name": "account",
          "type": "address"
        },
        {
          "internalType": "uint256",
          "name": "amount",
          "type": "uint256"
        }
      ],
      "name": "burnFrom",
      "outputs": [],
      "stateMutability": "nonpayable",
      "type": "function"
    },
    {
      "inputs": [],
      "name": "cap",
      "outputs": [
        {
          "internalType": "uint256",
          "name": "",
          "type": "uint256"
        }
      ],
      "stateMutability": "view",
      "type": "function"
    },
    {
      "inputs": [],
      "name": "decimals",
      "outputs": [
        {
          "internalType": "uint8",
          "name": "",
          "type": "uint8"
        }
      ],
      "stateMutability": "view",
      "type": "function"
    },
    {
      "inputs": [
        {
          "internalType": "address",
          "name": "spender",
          "type": "address"
        },
        {
          "internalType": "uint256",
          "name": "subtractedValue",
          "type": "uint256"
        }
      ],
      "name": "decreaseAllowance",
      "outputs": [
        {
          "internalType": "bool",
          "name": "",
          "type": "bool"
        }
      ],
      "stateMutability": "nonpayable",
      "type": "function"
    },
    {
      "inputs": [
        {
          "internalType": "bytes32",
          "name": "role",
          "type": "bytes32"
        }
      ],
      "name": "getRoleAdmin",
      "outputs": [
        {
          "internalType": "bytes32",
          "name": "",
          "type": "bytes32"
        }
      ],
      "stateMutability": "view",
      "type": "function"
    },
    {
      "inputs": [
        {
          "internalType": "bytes32",
          "name": "role",
          "type": "bytes32"
        },
        {
          "internalType": "address",
          "name": "account",
          "type": "address"
        }
      ],
      "name": "grantRole",
      "outputs": [],
      "stateMutability": "nonpayable",
      "type": "function"
    },
    {
      "inputs": [
        {
          "internalType": "bytes32",
          "name": "role",
          "type": "bytes32"
        },
        {
          "internalType": "address",
          "name": "account",
          "type": "address"
        }
      ],
      "name": "hasRole",
      "outputs": [
        {
          "internalType": "bool",
          "name": "",
          "type": "bool"
        }
      ],
      "stateMutability": "view",
      "type": "function"
    },
    {
      "inputs": [
        {
          "internalType": "address",
          "name": "spender",
          "type": "address"
        },
        {
          "internalType": "uint256",
          "name": "addedValue",
          "type": "uint256"
        }
      ],
      "name": "increaseAllowance",
      "outputs": [
        {
          "internalType": "bool",
          "name": "",
          "type": "bool"
        }
      ],
      "stateMutability": "nonpayable",
      "type": "function"
    },
    {
      "inputs": [
        {
          "internalType": "address",
          "name": "account",
          "type": "address"
        }
      ],
      "name": "isWhitelist",
      "outputs": [
        {
          "internalType": "bool",
          "name": "",
          "type": "bool"
        }
      ],
      "stateMutability": "view",
      "type": "function"
    },
    {
      "inputs": [],
      "name": "lockFromBlock",
      "outputs": [
        {
          "internalType": "uint256",
          "name": "",
          "type": "uint256"
        }
      ],
      "stateMutability": "view",
      "type": "function"
    },
    {
      "inputs": [],
      "name": "lockToBlock",
      "outputs": [
        {
          "internalType": "uint256",
          "name": "",
          "type": "uint256"
        }
      ],
      "stateMutability": "view",
      "type": "function"
    },
    {
      "inputs": [],
      "name": "name",
      "outputs": [
        {
          "internalType": "string",
          "name": "",
          "type": "string"
        }
      ],
      "stateMutability": "view",
      "type": "function"
    },
    {
      "inputs": [],
      "name": "owner",
      "outputs": [
        {
          "internalType": "address",
          "name": "",
          "type": "address"
        }
      ],
      "stateMutability": "view",
      "type": "function"
    },
    {
      "inputs": [],
      "name": "renounceOwnership",
      "outputs": [],
      "stateMutability": "nonpayable",
      "type": "function"
    },
    {
      "inputs": [
        {
          "internalType": "bytes32",
          "name": "role",
          "type": "bytes32"
        },
        {
          "internalType": "address",
          "name": "account",
          "type": "address"
        }
      ],
      "name": "renounceRole",
      "outputs": [],
      "stateMutability": "nonpayable",
      "type": "function"
    },
    {
      "inputs": [],
      "name": "renounceWhitelist",
      "outputs": [],
      "stateMutability": "nonpayable",
      "type": "function"
    },
    {
      "inputs": [
        {
          "internalType": "bytes32",
          "name": "role",
          "type": "bytes32"
        },
        {
          "internalType": "address",
          "name": "account",
          "type": "address"
        }
      ],
      "name": "revokeRole",
      "outputs": [],
      "stateMutability": "nonpayable",
      "type": "function"
    },
    {
      "inputs": [
        {
          "internalType": "address",
          "name": "account_",
          "type": "address"
        }
      ],
      "name": "revokeWhitelist",
      "outputs": [],
      "stateMutability": "nonpayable",
      "type": "function"
    },
    {
      "inputs": [
        {
          "internalType": "bytes4",
          "name": "interfaceId",
          "type": "bytes4"
        }
      ],
      "name": "supportsInterface",
      "outputs": [
        {
          "internalType": "bool",
          "name": "",
          "type": "bool"
        }
      ],
      "stateMutability": "view",
      "type": "function"
    },
    {
      "inputs": [],
      "name": "symbol",
      "outputs": [
        {
          "internalType": "string",
          "name": "",
          "type": "string"
        }
      ],
      "stateMutability": "view",
      "type": "function"
    },
    {
      "inputs": [],
      "name": "totalSupply",
      "outputs": [
        {
          "internalType": "uint256",
          "name": "",
          "type": "uint256"
        }
      ],
      "stateMutability": "view",
      "type": "function"
    },
    {
      "inputs": [
        {
          "internalType": "address",
          "name": "recipient",
          "type": "address"
        },
        {
          "internalType": "uint256",
          "name": "amount",
          "type": "uint256"
        }
      ],
      "name": "transfer",
      "outputs": [
        {
          "internalType": "bool",
          "name": "",
          "type": "bool"
        }
      ],
      "stateMutability": "nonpayable",
      "type": "function"
    },
    {
      "inputs": [
        {
          "internalType": "address",
          "name": "sender",
          "type": "address"
        },
        {
          "internalType": "address",
          "name": "recipient",
          "type": "address"
        },
        {
          "internalType": "uint256",
          "name": "amount",
          "type": "uint256"
        }
      ],
      "name": "transferFrom",
      "outputs": [
        {
          "internalType": "bool",
          "name": "",
          "type": "bool"
        }
      ],
      "stateMutability": "nonpayable",
      "type": "function"
    },
    {
      "inputs": [
        {
          "internalType": "address",
          "name": "newOwner",
          "type": "address"
        }
      ],
      "name": "transferOwnership",
      "outputs": [],
      "stateMutability": "nonpayable",
      "type": "function"
    },
    {
      "inputs": [],
      "name": "circulatingSupply",
      "outputs": [
        {
          "internalType": "uint256",
          "name": "",
          "type": "uint256"
        }
      ],
      "stateMutability": "view",
      "type": "function"
    },
    {
      "inputs": [],
      "name": "totalLock",
      "outputs": [
        {
          "internalType": "uint256",
          "name": "",
          "type": "uint256"
        }
      ],
      "stateMutability": "view",
      "type": "function"
    },
    {
      "inputs": [
        {
          "internalType": "address",
          "name": "_to",
          "type": "address"
        },
        {
          "internalType": "uint256",
          "name": "_amount",
          "type": "uint256"
        }
      ],
      "name": "mint",
      "outputs": [],
      "stateMutability": "nonpayable",
      "type": "function"
    },
    {
      "inputs": [
        {
          "internalType": "address",
          "name": "_holder",
          "type": "address"
        }
      ],
      "name": "totalBalanceOf",
      "outputs": [
        {
          "internalType": "uint256",
          "name": "",
          "type": "uint256"
        }
      ],
      "stateMutability": "view",
      "type": "function"
    },
    {
      "inputs": [
        {
          "internalType": "address",
          "name": "_holder",
          "type": "address"
        }
      ],
      "name": "lockOf",
      "outputs": [
        {
          "internalType": "uint256",
          "name": "",
          "type": "uint256"
        }
      ],
      "stateMutability": "view",
      "type": "function"
    },
    {
      "inputs": [
        {
          "internalType": "address",
          "name": "_holder",
          "type": "address"
        }
      ],
      "name": "lastUnlockBlock",
      "outputs": [
        {
          "internalType": "uint256",
          "name": "",
          "type": "uint256"
        }
      ],
      "stateMutability": "view",
      "type": "function"
    },
    {
      "inputs": [
        {
          "internalType": "address",
          "name": "_holder",
          "type": "address"
        },
        {
          "internalType": "uint256",
          "name": "_amount",
          "type": "uint256"
        }
      ],
      "name": "lock",
      "outputs": [],
      "stateMutability": "nonpayable",
      "type": "function"
    },
    {
      "inputs": [
        {
          "internalType": "address",
          "name": "_holder",
          "type": "address"
        }
      ],
      "name": "canUnlockAmount",
      "outputs": [
        {
          "internalType": "uint256",
          "name": "",
          "type": "uint256"
        }
      ],
      "stateMutability": "view",
      "type": "function"
    },
    {
      "inputs": [],
      "name": "unlock",
      "outputs": [],
      "stateMutability": "nonpayable",
      "type": "function"
    },
    {
      "inputs": [
        {
          "internalType": "address",
          "name": "_to",
          "type": "address"
        }
      ],
      "name": "transferAll",
      "outputs": [],
      "stateMutability": "nonpayable",
      "type": "function"
    },
    {
      "inputs": [
        {
          "internalType": "uint256",
          "name": "lockFromBlock_",
          "type": "uint256"
        }
      ],
      "name": "setLockFromBlock",
      "outputs": [],
      "stateMutability": "nonpayable",
      "type": "function"
    },
    {
      "inputs": [
        {
          "internalType": "uint256",
          "name": "lockToBlock_",
          "type": "uint256"
        }
      ],
      "name": "setLockToBlock",
      "outputs": [],
      "stateMutability": "nonpayable",
      "type": "function"
    },
    {
      "inputs": [
        {
          "internalType": "uint256",
          "name": "allowTransferOn_",
          "type": "uint256"
        }
      ],
      "name": "setAllowTransferOn",
      "outputs": [],
      "stateMutability": "nonpayable",
      "type": "function"
    },
    {
      "inputs": [
        {
          "internalType": "address",
          "name": "account",
          "type": "address"
        }
      ],
      "name": "checkWhiteList",
      "outputs": [
        {
          "internalType": "bool",
          "name": "",
          "type": "bool"
        }
      ],
      "stateMutability": "view",
      "type": "function"
    }
  ],
  "bytecode": "0x608060405234801561001057600080fd5b50612235806100206000396000f3fe608060405234801561001057600080fd5b50600436106102955760003560e01c806379cc679011610167578063a457c2d7116100ce578063d547741f11610087578063d547741f14610541578063dd62ed3e14610554578063dd661bda14610567578063e866294a1461057a578063f2fde38b14610582578063f80f5dd51461059557610295565b8063a457c2d7146104da578063a69df4b5146104ed578063a9059cbb146104f5578063c683630d14610508578063c72359f11461051b578063ca7506e81461052e57610295565b80639358928b116101205780639358928b1461048957806395d89b41146104915780639c7f3315146104995780639cce37c6146104ac578063a217fddf146104bf578063a3a7e7f3146104c757610295565b806379cc67901461042b5780637a997ab71461043e57806389a2867c146104465780638da5cb5b146104595780638e875e1a1461046e57806391d148541461047657610295565b8063355274ea1161020b57806342966c68116101c457806342966c68146103cf5780634b0ee02a146103e25780635a46d3b5146103f557806366fc237b1461040857806370a0823114610410578063715018a61461042357610295565b8063355274ea1461037e57806336568abe1461038657806339137f8b1461039957806339509351146103a15780633a1aae35146103b457806340c10f19146103bc57610295565b8063202b17601161025d578063202b17601461030a57806323b872dd1461031d578063248a9ca314610330578063282d3fdf146103435780632f2ff15d14610356578063313ce5671461036957610295565b806301ffc9a71461029a57806306fdde03146102c3578063095ea7b3146102d857806318160ddd146102eb5780631bb0339514610300575b600080fd5b6102ad6102a8366004611a0c565b6105a8565b6040516102ba9190611a48565b60405180910390f35b6102cb6105d5565b6040516102ba9190611a5c565b6102ad6102e63660046119a9565b610667565b6102f3610684565b6040516102ba9190611a53565b61030861068a565b005b6102f361031836600461191b565b610771565b6102ad61032b36600461196e565b61083e565b6102f361033e3660046119d2565b6108d5565b6103086103513660046119a9565b6108eb565b6103086103643660046119ea565b610a6a565b610371610aa8565b6040516102ba9190612112565b6102f3610aad565b6103086103943660046119ea565b610ab3565b610308610af5565b6102ad6103af3660046119a9565b610b84565b6102f3610bd3565b6103086103ca3660046119a9565b610beb565b6103086103dd3660046119d2565b610c3f565b6102f36103f036600461191b565b610c50565b6102f361040336600461191b565b610c7f565b6102f3610c9b565b6102f361041e36600461191b565b610ca2565b610308610cbd565b6103086104393660046119a9565b610d46565b6102f3610d9b565b6102f361045436600461191b565b610dad565b610461610dc9565b6040516102ba9190611a34565b6102f3610dd8565b6102ad6104843660046119ea565b610ddf565b6102f3610e0b565b6102cb610e23565b6103086104a736600461191b565b610e32565b6102ad6104ba36600461191b565b610eb7565b6102f3610f01565b6103086104d536600461191b565b610f06565b6102ad6104e83660046119a9565b610fff565b61030861107a565b6102ad6105033660046119a9565b61112d565b6102ad61051636600461191b565b611141565b6103086105293660046119d2565b61115b565b61030861053c3660046119d2565b6111a0565b61030861054f3660046119ea565b611215565b6102f361056236600461193c565b61123d565b6103086105753660046119d2565b611268565b6102f36112ad565b61030861059036600461191b565b6112b4565b6103086105a336600461191b565b611375565b60006001600160e01b03198216637965db0b60e01b14806105cd57506105cd826113c4565b90505b919050565b6060606880546105e49061218e565b80601f01602080910402602001604051908101604052809291908181526020018280546106109061218e565b801561065d5780601f106106325761010080835404028352916020019161065d565b820191906000526020600020905b81548152906001019060200180831161064057829003601f168201915b5050505050905090565b600061067b6106746113dd565b84846113e1565b50600192915050565b60675490565b600054610100900460ff16806106a3575060005460ff16155b6106c85760405162461bcd60e51b81526004016106bf90611df6565b60405180910390fd5b600054610100900460ff161580156106f3576000805460ff1961ff0019909116610100171660011790555b61070560006107006113dd565b610a9a565b61071f6000805160206121e08339815191526103646113dd565b6107276113dd565b6001600160a01b03167f4790a4adb426ca2345bb5108f6e454eae852a7bf687544cd66a7270dff3a41d660405160405180910390a2801561076e576000805461ff00191690555b50565b600061016354431015610786575060006105d0565b6101645443106107b057506001600160a01b038116600090815261016560205260409020546105d0565b6001600160a01b038216600090815261016660205260408120546107d49043612120565b6001600160a01b038416600090815261016660205260408120546101645492935090916108019190612120565b6001600160a01b03851660009081526101656020526040902054909150819061082b908490612158565b6108359190612138565b925050506105d0565b600061084b848484611495565b6001600160a01b03841660009081526066602052604081208161086c6113dd565b6001600160a01b03166001600160a01b03168152602001908152602001600020549050828110156108af5760405162461bcd60e51b81526004016106bf90611e44565b6108ca856108bb6113dd565b6108c58685612177565b6113e1565b506001949350505050565b600090815261012e602052604090206001015490565b6108f36113dd565b6001600160a01b0316610904610dc9565b6001600160a01b03161461092a5760405162461bcd60e51b81526004016106bf90611e8c565b6001600160a01b0382166109505760405162461bcd60e51b81526004016106bf90611ec1565b61095982610ca2565b8111156109785760405162461bcd60e51b81526004016106bf90611d2d565b610983816064612120565b9050610990823083611495565b6001600160a01b038216600090815261016560205260409020546109b5908290612120565b6001600160a01b03831660009081526101656020526040902055610161546109de908290612120565b61016155610163546001600160a01b038316600090815261016660205260409020541015610a2557610163546001600160a01b038316600090815261016660205260409020555b816001600160a01b03167f625fed9875dada8643f2418b838ae0bc78d9a148a18eee4ee1979ff0f3f5d42782604051610a5e9190611a53565b60405180910390a25050565b610a7e610a76836108d5565b6104846113dd565b610a9a5760405162461bcd60e51b81526004016106bf90611af2565b610aa482826114e0565b5050565b601290565b60975490565b610abb6113dd565b6001600160a01b0316816001600160a01b031614610aeb5760405162461bcd60e51b81526004016106bf9061208c565b610aa48282611568565b610b0f6000805160206121e08339815191526104846113dd565b610b2b5760405162461bcd60e51b81526004016106bf90611c95565b610b456000805160206121e08339815191526103946113dd565b610b4d6113dd565b6001600160a01b03167fde8cf212af7ce38b2840785a2768d97ff2dbf3c21b516961cec0061e134c2a1e60405160405180910390a2565b600061067b610b916113dd565b848460666000610b9f6113dd565b6001600160a01b03908116825260208083019390935260409182016000908120918b16815292529020546108c59190612120565b6000610161546103e8610be69190612120565b905090565b610bf36113dd565b6001600160a01b0316610c04610dc9565b6001600160a01b031614610c2a5760405162461bcd60e51b81526004016106bf90611e8c565b610aa482610c3a836103e8612120565b6115ee565b61076e610c4a6113dd565b826115f8565b6000610c5b82610ca2565b6001600160a01b038316600090815261016560205260409020546105cd9190612120565b6001600160a01b03166000908152610165602052604090205490565b6101635481565b6001600160a01b031660009081526065602052604090205490565b610cc56113dd565b6001600160a01b0316610cd6610dc9565b6001600160a01b031614610cfc5760405162461bcd60e51b81526004016106bf90611e8c565b6033546040516000916001600160a01b0316907f8be0079c531659141344cd1fd0a4f28419497f9722a3daafe3b4186f6b6457e0908390a3603380546001600160a01b0319169055565b6000610d54836105626113dd565b905081811015610d765760405162461bcd60e51b81526004016106bf90611f02565b610d8c83610d826113dd565b6108c58585612177565b610d9683836115f8565b505050565b6000805160206121e083398151915281565b6001600160a01b03166000908152610166602052604090205490565b6033546001600160a01b031690565b6101645481565b600091825261012e602090815260408084206001600160a01b0393909316845291905290205460ff1690565b600061016154610e19610684565b610be69190612177565b6060606980546105e49061218e565b610e4c6000805160206121e08339815191526104846113dd565b610e685760405162461bcd60e51b81526004016106bf90611c95565b610e806000805160206121e083398151915282611215565b6040516001600160a01b038216907f79bc96e8fb893a32b4429ae9fd9084cdb98be910b9c7cdbb4307cc96732c7ec790600090a250565b6000610ec16113dd565b6001600160a01b0316610ed2610dc9565b6001600160a01b031614610ef85760405162461bcd60e51b81526004016106bf90611e8c565b6105cd82611141565b600081565b3360009081526101656020526040808220546001600160a01b0384168352912054610f319190612120565b6001600160a01b0382166000908152610165602090815260408083209390935561016354610166909152919020541015610f8457610163546001600160a01b038216600090815261016660205260409020555b3360009081526101666020526040808220546001600160a01b03841683529120541015610fcd573360009081526101666020526040808220546001600160a01b03841683529120555b3360008181526101656020908152604080832083905561016690915281205561076e9082610ffa82610ca2565b611495565b6000806066600061100e6113dd565b6001600160a01b039081168252602080830193909352604091820160009081209188168152925290205490508281101561105a5760405162461bcd60e51b81526004016106bf90612047565b6110706110656113dd565b856108c58685612177565b5060019392505050565b33600090815261016560205260409020546110a75760405162461bcd60e51b81526004016106bf90611d62565b60006110b233610771565b90506110bd30610ca2565b8111156110d0576110cd30610ca2565b90505b6110db303383611495565b33600090815261016560205260409020546110f7908290612177565b336000908152610165602090815260408083209390935561016690522043905561016154611126908290612177565b6101615550565b600061067b61113a6113dd565b8484611495565b60006105cd6000805160206121e083398151915283610ddf565b6111636113dd565b6001600160a01b0316611174610dc9565b6001600160a01b03161461119a5760405162461bcd60e51b81526004016106bf90611e8c565b61016455565b6111a86113dd565b6001600160a01b03166111b9610dc9565b6001600160a01b0316146111df5760405162461bcd60e51b81526004016106bf90611e8c565b61016254431080156111f357506101625481105b61120f5760405162461bcd60e51b81526004016106bf90611c0b565b61016255565b611221610a76836108d5565b610aeb5760405162461bcd60e51b81526004016106bf90611da6565b6001600160a01b03918216600090815260666020908152604080832093909416825291909152205490565b6112706113dd565b6001600160a01b0316611281610dc9565b6001600160a01b0316146112a75760405162461bcd60e51b81526004016106bf90611e8c565b61016355565b6101625481565b6112bc6113dd565b6001600160a01b03166112cd610dc9565b6001600160a01b0316146112f35760405162461bcd60e51b81526004016106bf90611e8c565b6001600160a01b0381166113195760405162461bcd60e51b81526004016106bf90611b83565b6033546040516001600160a01b038084169216907f8be0079c531659141344cd1fd0a4f28419497f9722a3daafe3b4186f6b6457e090600090a3603380546001600160a01b0319166001600160a01b0392909216919091179055565b61138d6000805160206121e083398151915282610a6a565b6040516001600160a01b038216907f4790a4adb426ca2345bb5108f6e454eae852a7bf687544cd66a7270dff3a41d690600090a250565b6001600160e01b031981166301ffc9a760e01b14919050565b3390565b6001600160a01b0383166114075760405162461bcd60e51b81526004016106bf90612003565b6001600160a01b03821661142d5760405162461bcd60e51b81526004016106bf90611bc9565b6001600160a01b0380841660008181526066602090815260408083209487168084529490915290819020849055517f8c5be1e5ebec7d5bd14f71427d1e84f3dd0314c0f7b2291e5b200ac8c7c3b92590611488908590611a53565b60405180910390a3505050565b610162544311806114b957506114b96000805160206121e083398151915284610ddf565b6114d55760405162461bcd60e51b81526004016106bf90611ce2565b610d968383836116de565b6114ea8282610ddf565b610aa457600082815261012e602090815260408083206001600160a01b03851684529091529020805460ff191660011790556115246113dd565b6001600160a01b0316816001600160a01b0316837f2f8788117e7eff1d82e926ec794901d17c78024a50270940304540a733656f0d60405160405180910390a45050565b6115728282610ddf565b15610aa457600082815261012e602090815260408083206001600160a01b03851684529091529020805460ff191690556115aa6113dd565b6001600160a01b0316816001600160a01b0316837ff6391f5c32d9c69d2a47ea670b442974b53935d1edc7fd64eb21e047a839171b60405160405180910390a45050565b610aa48282611806565b6001600160a01b03821661161e5760405162461bcd60e51b81526004016106bf90611f46565b61162a82600083610d96565b6001600160a01b038216600090815260656020526040902054818110156116635760405162461bcd60e51b81526004016106bf90611b41565b61166d8282612177565b6001600160a01b0384166000908152606560205260408120919091556067805484929061169b908490612177565b90915550506040516000906001600160a01b038516907fddf252ad1be2c89b69c2b068fc378daa952ba7f163c4a11628f55a4df523b3ef90611488908690611a53565b6001600160a01b0383166117045760405162461bcd60e51b81526004016106bf90611f87565b6001600160a01b03821661172a5760405162461bcd60e51b81526004016106bf90611aaf565b611735838383610d96565b6001600160a01b0383166000908152606560205260409020548181101561176e5760405162461bcd60e51b81526004016106bf90611c4f565b6117788282612177565b6001600160a01b0380861660009081526065602052604080822093909355908516815290812080548492906117ae908490612120565b92505081905550826001600160a01b0316846001600160a01b03167fddf252ad1be2c89b69c2b068fc378daa952ba7f163c4a11628f55a4df523b3ef846040516117f89190611a53565b60405180910390a350505050565b61180e610aad565b81611817610684565b6118219190612120565b111561183f5760405162461bcd60e51b81526004016106bf90611fcc565b610aa482826001600160a01b03821661186a5760405162461bcd60e51b81526004016106bf906120db565b61187660008383610d96565b80606760008282546118889190612120565b90915550506001600160a01b038216600090815260656020526040812080548392906118b5908490612120565b90915550506040516001600160a01b038316906000907fddf252ad1be2c89b69c2b068fc378daa952ba7f163c4a11628f55a4df523b3ef906118f8908590611a53565b60405180910390a35050565b80356001600160a01b03811681146105d057600080fd5b60006020828403121561192c578081fd5b61193582611904565b9392505050565b6000806040838503121561194e578081fd5b61195783611904565b915061196560208401611904565b90509250929050565b600080600060608486031215611982578081fd5b61198b84611904565b925061199960208501611904565b9150604084013590509250925092565b600080604083850312156119bb578182fd5b6119c483611904565b946020939093013593505050565b6000602082840312156119e3578081fd5b5035919050565b600080604083850312156119fc578182fd5b8235915061196560208401611904565b600060208284031215611a1d578081fd5b81356001600160e01b031981168114611935578182fd5b6001600160a01b0391909116815260200190565b901515815260200190565b90815260200190565b6000602080835283518082850152825b81811015611a8857858101830151858201604001528201611a6c565b81811115611a995783604083870101525b50601f01601f1916929092016040019392505050565b60208082526023908201527f45524332303a207472616e7366657220746f20746865207a65726f206164647260408201526265737360e81b606082015260800190565b6020808252602f908201527f416363657373436f6e74726f6c3a2073656e646572206d75737420626520616e60408201526e0818591b5a5b881d1bc819dc985b9d608a1b606082015260800190565b60208082526022908201527f45524332303a206275726e20616d6f756e7420657863656564732062616c616e604082015261636560f01b606082015260800190565b60208082526026908201527f4f776e61626c653a206e6577206f776e657220697320746865207a65726f206160408201526564647265737360d01b606082015260800190565b60208082526022908201527f45524332303a20617070726f766520746f20746865207a65726f206164647265604082015261737360f01b606082015260800190565b60208082526024908201527f446578537761703a20696e76616c6964206e657720616c6c6f775472616e736660408201526332b927b760e11b606082015260800190565b60208082526026908201527f45524332303a207472616e7366657220616d6f756e7420657863656564732062604082015265616c616e636560d01b606082015260800190565b6020808252602d908201527f57686974656c697374526f6c653a2043616c6c6572206973206e6f742061207760408201526c686974656c69737420726f6c6560981b606082015260800190565b6020808252602b908201527f446578537761703a20796f757220444558532063616e2774207472616e73666560408201526a72207269676874206e6f7760a81b606082015260800190565b6020808252818101527f446578537761703a206c6f636b20616d6f756e74206f76657220626c616e6365604082015260600190565b60208082526024908201527f446578537761703a207468657265206172656e2774204445585320746f20756e6040820152636c6f636b60e01b606082015260800190565b60208082526030908201527f416363657373436f6e74726f6c3a2073656e646572206d75737420626520616e60408201526f2061646d696e20746f207265766f6b6560801b606082015260800190565b6020808252602e908201527f496e697469616c697a61626c653a20636f6e747261637420697320616c72656160408201526d191e481a5b9a5d1a585b1a5e995960921b606082015260800190565b60208082526028908201527f45524332303a207472616e7366657220616d6f756e74206578636565647320616040820152676c6c6f77616e636560c01b606082015260800190565b6020808252818101527f4f776e61626c653a2063616c6c6572206973206e6f7420746865206f776e6572604082015260600190565b60208082526021908201527f446578537761703a206c6f636b20746f20746865207a65726f206164647265736040820152607360f81b606082015260800190565b60208082526024908201527f45524332303a206275726e20616d6f756e74206578636565647320616c6c6f77604082015263616e636560e01b606082015260800190565b60208082526021908201527f45524332303a206275726e2066726f6d20746865207a65726f206164647265736040820152607360f81b606082015260800190565b60208082526025908201527f45524332303a207472616e736665722066726f6d20746865207a65726f206164604082015264647265737360d81b606082015260800190565b60208082526019908201527f45524332304361707065643a2063617020657863656564656400000000000000604082015260600190565b60208082526024908201527f45524332303a20617070726f76652066726f6d20746865207a65726f206164646040820152637265737360e01b606082015260800190565b60208082526025908201527f45524332303a2064656372656173656420616c6c6f77616e63652062656c6f77604082015264207a65726f60d81b606082015260800190565b6020808252602f908201527f416363657373436f6e74726f6c3a2063616e206f6e6c792072656e6f756e636560408201526e103937b632b9903337b91039b2b63360891b606082015260800190565b6020808252601f908201527f45524332303a206d696e7420746f20746865207a65726f206164647265737300604082015260600190565b60ff91909116815260200190565b60008219821115612133576121336121c9565b500190565b60008261215357634e487b7160e01b81526012600452602481fd5b500490565b6000816000190483118215151615612172576121726121c9565b500290565b600082821015612189576121896121c9565b500390565b6002810460018216806121a257607f821691505b602082108114156121c357634e487b7160e01b600052602260045260246000fd5b50919050565b634e487b7160e01b600052601160045260246000fdfedc72ed553f2544c34465af23b847953efeb813428162d767f9ba5f4013be6760a2646970667358221220d12bf0e6192ce2ec508b720b17edd8fc474c0e8f5d235d204ecb42d041f0e37764736f6c63430008000033",
  "immutableReferences": {},
  "source": "// SPDX-License-Identifier: UNLICENSED\n\npragma solidity ^0.8.0;\n\nimport \"@openzeppelin/contracts-upgradeable/access/OwnableUpgradeable.sol\";\nimport \"@openzeppelin/contracts-upgradeable/token/ERC20/ERC20Upgradeable.sol\";\nimport \"@openzeppelin/contracts-upgradeable/token/ERC20/extensions/ERC20CappedUpgradeable.sol\";\nimport \"@openzeppelin/contracts-upgradeable/token/ERC20/extensions/ERC20BurnableUpgradeable.sol\";\nimport \"@openzeppelin/contracts-upgradeable/access/OwnableUpgradeable.sol\";\nimport \"@openzeppelin/contracts-upgradeable/proxy/utils/Initializable.sol\";\n\nimport \"./WhitelistRole.sol\";\n\n// DEXS Token based on ERC-20 standard\ncontract DexSwapV2 is Initializable, OwnableUpgradeable, ERC20Upgradeable, ERC20CappedUpgradeable, ERC20BurnableUpgradeable, WhitelistRole {\n    uint256 private _cap;                    // Maximum supply\n    uint256 private _totalLock;                             // Pre-caculate total locked DEXS tokens\n\n    // uint256 public allowTransferOn = 12549338;           // Blocker number 12549338 (on mainnet) ~ 2021-05-31 23:59:59 GMT+9 timezone\n    uint256 public allowTransferOn;\n    uint256 public lockFromBlock;                           // Block number that DEXS token is locked from\n    uint256 public lockToBlock;                             // Block number that DEXS token is locked to\n\n    mapping(address => uint256) private _locks;             // Current locked DEXS of each address\n    mapping(address => uint256) private _lastUnlockBlock;   // The last block number that a address's DEXS is unlocked\n\n    event Lock(address indexed to, uint256 value);\n\n    /**\n     * @dev Return current circulatable DEXS tokens.\n     */\n    function circulatingSupply() public view returns (uint256) {\n        return super.totalSupply() - _totalLock;\n    }\n\n    /**\n     * @dev Return total locked DEXS tokens.\n     */\n    function totalLock() public view returns (uint256) {\n        return _totalLock + 1000;\n    }\n\n    /**\n     * @dev See {ERC20-_mint}.\n     * Can only be called by the current owner.\n     */\n    function mint(address _to, uint256 _amount) public onlyOwner {\n        _mint(_to, _amount+1000);\n    }\n\n    /**\n     * @dev Return total DEXS balance of a address.\n     */\n    function totalBalanceOf(address _holder) public view returns (uint256) {\n        return _locks[_holder] + balanceOf(_holder);\n    }\n\n    /**\n     * @dev Return locked DEXS token of a address.\n     */\n    function lockOf(address _holder) public view returns (uint256) {\n        return _locks[_holder];\n    }\n\n    /**\n     * @dev Return block number that contains the last unlock call by a address.\n     */\n    function lastUnlockBlock(address _holder) public view returns (uint256) {\n        return _lastUnlockBlock[_holder];\n    }\n\n    /**\n     * @dev Lock a DEXS token amount of a address.\n     */\n    function lock(address _holder, uint256 _amount) public onlyOwner {\n        require(_holder != address(0), \"DexSwap: lock to the zero address\");\n        require(_amount <= balanceOf(_holder), \"DexSwap: lock amount over blance\");\n\n        _amount = _amount + 100;\n\n        _transfer(_holder, address(this), _amount);\n\n        _locks[_holder] = _locks[_holder] + _amount;\n        _totalLock = _totalLock + _amount;\n        if (_lastUnlockBlock[_holder] < lockFromBlock) {\n            _lastUnlockBlock[_holder] = lockFromBlock;\n        }\n        emit Lock(_holder, _amount);\n    }\n\n    /**\n     * @dev Return number of DEXS token that the address can unlock.\n     */\n    function canUnlockAmount(address _holder) public view returns (uint256) {\n        if (block.number < lockFromBlock) {\n            return 0;\n        }\n        else if (block.number >= lockToBlock) {\n            return _locks[_holder];\n        }\n        else {\n            uint256 releaseBlock = block.number + _lastUnlockBlock[_holder];\n            uint256 numberLockBlock = lockToBlock + _lastUnlockBlock[_holder];\n            return _locks[_holder] * releaseBlock / numberLockBlock;\n        }\n    }\n\n    /**\n     * @dev Unlock DEXS token for the sender\n     */\n    function unlock() public {\n        require(_locks[msg.sender] > 0, \"DexSwap: there aren't DEXS to unlock\");\n        \n        uint256 amount = canUnlockAmount(msg.sender);\n        if (amount > balanceOf(address(this))) {\n            amount = balanceOf(address(this));\n        }\n        _transfer(address(this), msg.sender, amount);\n        _locks[msg.sender] = _locks[msg.sender] - amount;\n        _lastUnlockBlock[msg.sender] = block.number;\n        _totalLock = _totalLock - amount;\n    }\n\n    /**\n     * @dev Dev address migrate all balance to a multi sig address\n     */\n    function transferAll(address _to) public {\n        _locks[_to] = _locks[_to] + _locks[msg.sender];\n\n        if (_lastUnlockBlock[_to] < lockFromBlock) {\n            _lastUnlockBlock[_to] = lockFromBlock;\n        }\n\n        if (_lastUnlockBlock[_to] < _lastUnlockBlock[msg.sender]) {\n            _lastUnlockBlock[_to] = _lastUnlockBlock[msg.sender];\n        }\n\n        _locks[msg.sender] = 0;\n        _lastUnlockBlock[msg.sender] = 0;\n\n        _transfer(msg.sender, _to, balanceOf(msg.sender));\n    }\n\n    /**\n     * @dev See {ERC20Capped-_mint}.\n     */\n    function _mint(address account, uint256 amount) internal virtual override(ERC20Upgradeable, ERC20CappedUpgradeable) {\n        super._mint(account, amount);\n    }\n\n    /**\n     * @dev See {ERC20-_transfer}.\n     */\n    function _transfer(address sender, address recipient, uint256 amount) internal virtual override(ERC20Upgradeable) {\n        require(block.number > allowTransferOn || hasRole(WHITELIST_ROLE, sender), \"DexSwap: your DEXS can't transfer right now\");\n        super._transfer(sender, recipient, amount);\n    }\n    /**\n     * @dev Set from block to lock balance\n     * Can only be called by the current owner.\n     */\n    function setLockFromBlock(uint256 lockFromBlock_) external onlyOwner{\n        lockFromBlock = lockFromBlock_;\n    }\n    /**\n     * @dev Set to block to lock balance\n     * Can only be called by the current owner.\n     */\n    function setLockToBlock(uint256 lockToBlock_) external onlyOwner{\n        lockToBlock = lockToBlock_;\n    }\n    /**\n     * @dev Set block allow transfer on\n     * Can only be called by the current owner.\n     */\n    function setAllowTransferOn(uint256 allowTransferOn_) external onlyOwner{\n        require(block.number < allowTransferOn && allowTransferOn_ < allowTransferOn, \"DexSwap: invalid new allowTransferOn\");\n        allowTransferOn = allowTransferOn_;\n    }\n\n    function checkWhiteList(address account) external view onlyOwner returns(bool){\n        return super.isWhitelist(account);\n    }\n}",
  "sourcePath": "/mnt/c/Users/dropdisco/Downloads/contract-proxy/sone-token-contracts-main/contracts/DexSwapV2.sol",
  "compiler": {
    "name": "solc",
    "version": "0.8.0+commit.c7dfd78e.Emscripten.clang"
  },
  "schemaVersion": "3.4.1",
  "updatedAt": "2021-06-05T15:48:01.871Z",
  "devdoc": {
    "kind": "dev",
    "methods": {
      "allowance(address,address)": {
        "details": "See {IERC20-allowance}."
      },
      "approve(address,uint256)": {
        "details": "See {IERC20-approve}. Requirements: - `spender` cannot be the zero address."
      },
      "balanceOf(address)": {
        "details": "See {IERC20-balanceOf}."
      },
      "burn(uint256)": {
        "details": "Destroys `amount` tokens from the caller. See {ERC20-_burn}."
      },
      "burnFrom(address,uint256)": {
        "details": "Destroys `amount` tokens from `account`, deducting from the caller's allowance. See {ERC20-_burn} and {ERC20-allowance}. Requirements: - the caller must have allowance for ``accounts``'s tokens of at least `amount`."
      },
      "canUnlockAmount(address)": {
        "details": "Return number of DEXS token that the address can unlock."
      },
      "cap()": {
        "details": "Returns the cap on the token's total supply."
      },
      "circulatingSupply()": {
        "details": "Return current circulatable DEXS tokens."
      },
      "decimals()": {
        "details": "Returns the number of decimals used to get its user representation. For example, if `decimals` equals `2`, a balance of `505` tokens should be displayed to a user as `5,05` (`505 / 10 ** 2`). Tokens usually opt for a value of 18, imitating the relationship between Ether and Wei. This is the value {ERC20} uses, unless this function is overloaded; NOTE: This information is only used for _display_ purposes: it in no way affects any of the arithmetic of the contract, including {IERC20-balanceOf} and {IERC20-transfer}."
      },
      "decreaseAllowance(address,uint256)": {
        "details": "Atomically decreases the allowance granted to `spender` by the caller. This is an alternative to {approve} that can be used as a mitigation for problems described in {IERC20-approve}. Emits an {Approval} event indicating the updated allowance. Requirements: - `spender` cannot be the zero address. - `spender` must have allowance for the caller of at least `subtractedValue`."
      },
      "getRoleAdmin(bytes32)": {
        "details": "Returns the admin role that controls `role`. See {grantRole} and {revokeRole}. To change a role's admin, use {_setRoleAdmin}."
      },
      "grantRole(bytes32,address)": {
        "details": "Grants `role` to `account`. If `account` had not been already granted `role`, emits a {RoleGranted} event. Requirements: - the caller must have ``role``'s admin role."
      },
      "hasRole(bytes32,address)": {
        "details": "Returns `true` if `account` has been granted `role`."
      },
      "increaseAllowance(address,uint256)": {
        "details": "Atomically increases the allowance granted to `spender` by the caller. This is an alternative to {approve} that can be used as a mitigation for problems described in {IERC20-approve}. Emits an {Approval} event indicating the updated allowance. Requirements: - `spender` cannot be the zero address."
      },
      "lastUnlockBlock(address)": {
        "details": "Return block number that contains the last unlock call by a address."
      },
      "lock(address,uint256)": {
        "details": "Lock a DEXS token amount of a address."
      },
      "lockOf(address)": {
        "details": "Return locked DEXS token of a address."
      },
      "mint(address,uint256)": {
        "details": "See {ERC20-_mint}. Can only be called by the current owner."
      },
      "name()": {
        "details": "Returns the name of the token."
      },
      "owner()": {
        "details": "Returns the address of the current owner."
      },
      "renounceOwnership()": {
        "details": "Leaves the contract without owner. It will not be possible to call `onlyOwner` functions anymore. Can only be called by the current owner. NOTE: Renouncing ownership will leave the contract without an owner, thereby removing any functionality that is only available to the owner."
      },
      "renounceRole(bytes32,address)": {
        "details": "Revokes `role` from the calling account. Roles are often managed via {grantRole} and {revokeRole}: this function's purpose is to provide a mechanism for accounts to lose their privileges if they are compromised (such as when a trusted device is misplaced). If the calling account had been granted `role`, emits a {RoleRevoked} event. Requirements: - the caller must be `account`."
      },
      "revokeRole(bytes32,address)": {
        "details": "Revokes `role` from `account`. If `account` had been granted `role`, emits a {RoleRevoked} event. Requirements: - the caller must have ``role``'s admin role."
      },
      "setAllowTransferOn(uint256)": {
        "details": "Set block allow transfer on Can only be called by the current owner."
      },
      "setLockFromBlock(uint256)": {
        "details": "Set from block to lock balance Can only be called by the current owner."
      },
      "setLockToBlock(uint256)": {
        "details": "Set to block to lock balance Can only be called by the current owner."
      },
      "supportsInterface(bytes4)": {
        "details": "See {IERC165-supportsInterface}."
      },
      "symbol()": {
        "details": "Returns the symbol of the token, usually a shorter version of the name."
      },
      "totalBalanceOf(address)": {
        "details": "Return total DEXS balance of a address."
      },
      "totalLock()": {
        "details": "Return total locked DEXS tokens."
      },
      "totalSupply()": {
        "details": "See {IERC20-totalSupply}."
      },
      "transfer(address,uint256)": {
        "details": "See {IERC20-transfer}. Requirements: - `recipient` cannot be the zero address. - the caller must have a balance of at least `amount`."
      },
      "transferAll(address)": {
        "details": "Dev address migrate all balance to a multi sig address"
      },
      "transferFrom(address,address,uint256)": {
        "details": "See {IERC20-transferFrom}. Emits an {Approval} event indicating the updated allowance. This is not required by the EIP. See the note at the beginning of {ERC20}. Requirements: - `sender` and `recipient` cannot be the zero address. - `sender` must have a balance of at least `amount`. - the caller must have allowance for ``sender``'s tokens of at least `amount`."
      },
      "transferOwnership(address)": {
        "details": "Transfers ownership of the contract to a new account (`newOwner`). Can only be called by the current owner."
      },
      "unlock()": {
        "details": "Unlock DEXS token for the sender"
      }
    },
    "version": 1
  },
  "userdoc": {
    "kind": "user",
    "methods": {},
    "version": 1
  }
}