{
  "contractName": "WhitelistRole",
  "abi": [
    {
      "anonymous": false,
      "inputs": [
        {
          "indexed": true,
          "internalType": "bytes32",
          "name": "role",
          "type": "bytes32"
        },
        {
          "indexed": true,
          "internalType": "bytes32",
          "name": "previousAdminRole",
          "type": "bytes32"
        },
        {
          "indexed": true,
          "internalType": "bytes32",
          "name": "newAdminRole",
          "type": "bytes32"
        }
      ],
      "name": "RoleAdminChanged",
      "type": "event"
    },
    {
      "anonymous": false,
      "inputs": [
        {
          "indexed": true,
          "internalType": "bytes32",
          "name": "role",
          "type": "bytes32"
        },
        {
          "indexed": true,
          "internalType": "address",
          "name": "account",
          "type": "address"
        },
        {
          "indexed": true,
          "internalType": "address",
          "name": "sender",
          "type": "address"
        }
      ],
      "name": "RoleGranted",
      "type": "event"
    },
    {
      "anonymous": false,
      "inputs": [
        {
          "indexed": true,
          "internalType": "bytes32",
          "name": "role",
          "type": "bytes32"
        },
        {
          "indexed": true,
          "internalType": "address",
          "name": "account",
          "type": "address"
        },
        {
          "indexed": true,
          "internalType": "address",
          "name": "sender",
          "type": "address"
        }
      ],
      "name": "RoleRevoked",
      "type": "event"
    },
    {
      "anonymous": false,
      "inputs": [
        {
          "indexed": true,
          "internalType": "address",
          "name": "account",
          "type": "address"
        }
      ],
      "name": "WhitelistAdded",
      "type": "event"
    },
    {
      "anonymous": false,
      "inputs": [
        {
          "indexed": true,
          "internalType": "address",
          "name": "account",
          "type": "address"
        }
      ],
      "name": "WhitelistRemoved",
      "type": "event"
    },
    {
      "anonymous": false,
      "inputs": [
        {
          "indexed": true,
          "internalType": "address",
          "name": "account",
          "type": "address"
        }
      ],
      "name": "WhitelistRevoked",
      "type": "event"
    },
    {
      "inputs": [],
      "name": "DEFAULT_ADMIN_ROLE",
      "outputs": [
        {
          "internalType": "bytes32",
          "name": "",
          "type": "bytes32"
        }
      ],
      "stateMutability": "view",
      "type": "function"
    },
    {
      "inputs": [],
      "name": "WHITELIST_ROLE",
      "outputs": [
        {
          "internalType": "bytes32",
          "name": "",
          "type": "bytes32"
        }
      ],
      "stateMutability": "view",
      "type": "function"
    },
    {
      "inputs": [
        {
          "internalType": "bytes32",
          "name": "role",
          "type": "bytes32"
        }
      ],
      "name": "getRoleAdmin",
      "outputs": [
        {
          "internalType": "bytes32",
          "name": "",
          "type": "bytes32"
        }
      ],
      "stateMutability": "view",
      "type": "function"
    },
    {
      "inputs": [
        {
          "internalType": "bytes32",
          "name": "role",
          "type": "bytes32"
        },
        {
          "internalType": "address",
          "name": "account",
          "type": "address"
        }
      ],
      "name": "grantRole",
      "outputs": [],
      "stateMutability": "nonpayable",
      "type": "function"
    },
    {
      "inputs": [
        {
          "internalType": "bytes32",
          "name": "role",
          "type": "bytes32"
        },
        {
          "internalType": "address",
          "name": "account",
          "type": "address"
        }
      ],
      "name": "hasRole",
      "outputs": [
        {
          "internalType": "bool",
          "name": "",
          "type": "bool"
        }
      ],
      "stateMutability": "view",
      "type": "function"
    },
    {
      "inputs": [
        {
          "internalType": "bytes32",
          "name": "role",
          "type": "bytes32"
        },
        {
          "internalType": "address",
          "name": "account",
          "type": "address"
        }
      ],
      "name": "renounceRole",
      "outputs": [],
      "stateMutability": "nonpayable",
      "type": "function"
    },
    {
      "inputs": [
        {
          "internalType": "bytes32",
          "name": "role",
          "type": "bytes32"
        },
        {
          "internalType": "address",
          "name": "account",
          "type": "address"
        }
      ],
      "name": "revokeRole",
      "outputs": [],
      "stateMutability": "nonpayable",
      "type": "function"
    },
    {
      "inputs": [
        {
          "internalType": "bytes4",
          "name": "interfaceId",
          "type": "bytes4"
        }
      ],
      "name": "supportsInterface",
      "outputs": [
        {
          "internalType": "bool",
          "name": "",
          "type": "bool"
        }
      ],
      "stateMutability": "view",
      "type": "function"
    },
    {
      "inputs": [],
      "name": "__WhitelistRole_init",
      "outputs": [],
      "stateMutability": "nonpayable",
      "type": "function"
    },
    {
      "inputs": [
        {
          "internalType": "address",
          "name": "account",
          "type": "address"
        }
      ],
      "name": "isWhitelist",
      "outputs": [
        {
          "internalType": "bool",
          "name": "",
          "type": "bool"
        }
      ],
      "stateMutability": "view",
      "type": "function"
    },
    {
      "inputs": [
        {
          "internalType": "address",
          "name": "account",
          "type": "address"
        }
      ],
      "name": "addWhitelist",
      "outputs": [],
      "stateMutability": "nonpayable",
      "type": "function"
    },
    {
      "inputs": [],
      "name": "renounceWhitelist",
      "outputs": [],
      "stateMutability": "nonpayable",
      "type": "function"
    },
    {
      "inputs": [
        {
          "internalType": "address",
          "name": "account_",
          "type": "address"
        }
      ],
      "name": "revokeWhitelist",
      "outputs": [],
      "stateMutability": "nonpayable",
      "type": "function"
    }
  ],
  "bytecode": "0x608060405234801561001057600080fd5b50610913806100206000396000f3fe608060405234801561001057600080fd5b50600436106100cf5760003560e01c80637a997ab71161008c578063a217fddf11610066578063a217fddf14610183578063c683630d1461018b578063d547741f1461019e578063f80f5dd5146101b1576100cf565b80637a997ab71461015557806391d148541461015d5780639c7f331514610170576100cf565b806301ffc9a7146100d45780631bb03395146100fd578063248a9ca3146101075780632f2ff15d1461012757806336568abe1461013a57806339137f8b1461014d575b600080fd5b6100e76100e23660046106f8565b6101c4565b6040516100f49190610720565b60405180910390f35b6101056101f1565b005b61011a6101153660046106b5565b6102d8565b6040516100f4919061072b565b6101056101353660046106cd565b6102ed565b6101056101483660046106cd565b61032b565b61010561036d565b61011a6103fc565b6100e761016b3660046106cd565b61040e565b61010561017e366004610694565b610439565b61011a6104be565b6100e7610199366004610694565b6104c3565b6101056101ac3660046106cd565b6104dd565b6101056101bf366004610694565b610505565b60006001600160e01b03198216637965db0b60e01b14806101e957506101e982610554565b90505b919050565b600054610100900460ff168061020a575060005460ff16155b61022f5760405162461bcd60e51b815260040161022690610820565b60405180910390fd5b600054610100900460ff1615801561025a576000805460ff1961ff0019909116610100171660011790555b61026c600061026761056d565b61031d565b6102866000805160206108be83398151915261013561056d565b61028e61056d565b6001600160a01b03167f4790a4adb426ca2345bb5108f6e454eae852a7bf687544cd66a7270dff3a41d660405160405180910390a280156102d5576000805461ff00191690555b50565b60009081526065602052604090206001015490565b6103016102f9836102d8565b61016b61056d565b61031d5760405162461bcd60e51b815260040161022690610734565b6103278282610571565b5050565b61033361056d565b6001600160a01b0316816001600160a01b0316146103635760405162461bcd60e51b81526004016102269061086e565b61032782826105f8565b6103876000805160206108be83398151915261016b61056d565b6103a35760405162461bcd60e51b815260040161022690610783565b6103bd6000805160206108be83398151915261014861056d565b6103c561056d565b6001600160a01b03167fde8cf212af7ce38b2840785a2768d97ff2dbf3c21b516961cec0061e134c2a1e60405160405180910390a2565b6000805160206108be83398151915281565b60009182526065602090815260408084206001600160a01b0393909316845291905290205460ff1690565b6104536000805160206108be83398151915261016b61056d565b61046f5760405162461bcd60e51b815260040161022690610783565b6104876000805160206108be833981519152826104dd565b6040516001600160a01b038216907f79bc96e8fb893a32b4429ae9fd9084cdb98be910b9c7cdbb4307cc96732c7ec790600090a250565b600081565b60006101e96000805160206108be8339815191528361040e565b6104e96102f9836102d8565b6103635760405162461bcd60e51b8152600401610226906107d0565b61051d6000805160206108be833981519152826102ed565b6040516001600160a01b038216907f4790a4adb426ca2345bb5108f6e454eae852a7bf687544cd66a7270dff3a41d690600090a250565b6001600160e01b031981166301ffc9a760e01b14919050565b3390565b61057b828261040e565b6103275760008281526065602090815260408083206001600160a01b03851684529091529020805460ff191660011790556105b461056d565b6001600160a01b0316816001600160a01b0316837f2f8788117e7eff1d82e926ec794901d17c78024a50270940304540a733656f0d60405160405180910390a45050565b610602828261040e565b156103275760008281526065602090815260408083206001600160a01b03851684529091529020805460ff1916905561063961056d565b6001600160a01b0316816001600160a01b0316837ff6391f5c32d9c69d2a47ea670b442974b53935d1edc7fd64eb21e047a839171b60405160405180910390a45050565b80356001600160a01b03811681146101ec57600080fd5b6000602082840312156106a5578081fd5b6106ae8261067d565b9392505050565b6000602082840312156106c6578081fd5b5035919050565b600080604083850312156106df578081fd5b823591506106ef6020840161067d565b90509250929050565b600060208284031215610709578081fd5b81356001600160e01b0319811681146106ae578182fd5b901515815260200190565b90815260200190565b6020808252602f908201527f416363657373436f6e74726f6c3a2073656e646572206d75737420626520616e60408201526e0818591b5a5b881d1bc819dc985b9d608a1b606082015260800190565b6020808252602d908201527f57686974656c697374526f6c653a2043616c6c6572206973206e6f742061207760408201526c686974656c69737420726f6c6560981b606082015260800190565b60208082526030908201527f416363657373436f6e74726f6c3a2073656e646572206d75737420626520616e60408201526f2061646d696e20746f207265766f6b6560801b606082015260800190565b6020808252602e908201527f496e697469616c697a61626c653a20636f6e747261637420697320616c72656160408201526d191e481a5b9a5d1a585b1a5e995960921b606082015260800190565b6020808252602f908201527f416363657373436f6e74726f6c3a2063616e206f6e6c792072656e6f756e636560408201526e103937b632b9903337b91039b2b63360891b60608201526080019056fedc72ed553f2544c34465af23b847953efeb813428162d767f9ba5f4013be6760a26469706673582212209a2a27f76a2fc356853315b826a9fd2197d3f9bb60733542987ad6be36f7307864736f6c63430008000033",
  "immutableReferences": {},
  "source": "// SPDX-License-Identifier: MIT\n\npragma solidity ^0.8.0;\n\nimport \"@openzeppelin/contracts-upgradeable/access/AccessControlUpgradeable.sol\";\nimport \"@openzeppelin/contracts-upgradeable/utils/ContextUpgradeable.sol\";\nimport \"@openzeppelin/contracts-upgradeable/proxy/utils/Initializable.sol\";\n\n\ncontract WhitelistRole is Initializable, ContextUpgradeable, AccessControlUpgradeable {\n    bytes32 public constant WHITELIST_ROLE = keccak256(\"WHITELIST_ROLE\");\n\n    event WhitelistAdded(address indexed account);\n    event WhitelistRemoved(address indexed account);\n    event WhitelistRevoked(address indexed account);\n\n    function __WhitelistRole_init() public initializer{\n         // Grant the contract deployer the default admin role: it will be able\n        // to grant and revoke any roles\n        _setupRole(DEFAULT_ADMIN_ROLE, _msgSender());\n\n        // Grant the contract deployer the WHITELIST_ROLE role\n        grantRole(WHITELIST_ROLE, _msgSender());\n        emit WhitelistAdded(_msgSender());\n    }\n\n    modifier onlyWhitelist() {\n        require(\n            hasRole(WHITELIST_ROLE, _msgSender()),\n            \"WhitelistRole: Caller is not a whitelist role\"\n        );\n        _;\n    }\n\n    function isWhitelist(address account)\n        public\n        view\n        returns (bool)\n    {\n        return hasRole(WHITELIST_ROLE, account);\n    }\n\n    function addWhitelist(address account) public {\n        grantRole(WHITELIST_ROLE, account);\n        emit WhitelistAdded(account);\n    }\n\n    function renounceWhitelist() public onlyWhitelist{\n        renounceRole(WHITELIST_ROLE, _msgSender());\n        emit WhitelistRemoved(_msgSender());\n    }\n\n\n    function revokeWhitelist(address account_) public onlyWhitelist{\n        revokeRole(WHITELIST_ROLE, account_);\n        emit WhitelistRevoked(account_);\n    }\n}\n",
  "sourcePath": "/mnt/c/Users/dropdisco/Downloads/contract-proxy/sone-token-contracts-main/contracts/WhitelistRole.sol",
  "compiler": {
    "name": "solc",
    "version": "0.8.0+commit.c7dfd78e.Emscripten.clang"
  },
  "schemaVersion": "3.4.1",
  "updatedAt": "2021-06-05T15:48:02.434Z",
  "devdoc": {
    "kind": "dev",
    "methods": {
      "getRoleAdmin(bytes32)": {
        "details": "Returns the admin role that controls `role`. See {grantRole} and {revokeRole}. To change a role's admin, use {_setRoleAdmin}."
      },
      "grantRole(bytes32,address)": {
        "details": "Grants `role` to `account`. If `account` had not been already granted `role`, emits a {RoleGranted} event. Requirements: - the caller must have ``role``'s admin role."
      },
      "hasRole(bytes32,address)": {
        "details": "Returns `true` if `account` has been granted `role`."
      },
      "renounceRole(bytes32,address)": {
        "details": "Revokes `role` from the calling account. Roles are often managed via {grantRole} and {revokeRole}: this function's purpose is to provide a mechanism for accounts to lose their privileges if they are compromised (such as when a trusted device is misplaced). If the calling account had been granted `role`, emits a {RoleRevoked} event. Requirements: - the caller must be `account`."
      },
      "revokeRole(bytes32,address)": {
        "details": "Revokes `role` from `account`. If `account` had been granted `role`, emits a {RoleRevoked} event. Requirements: - the caller must have ``role``'s admin role."
      },
      "supportsInterface(bytes4)": {
        "details": "See {IERC165-supportsInterface}."
      }
    },
    "version": 1
  },
  "userdoc": {
    "kind": "user",
    "methods": {},
    "version": 1
  }
}